{
  "contractName": "DeFiPlatform",
  "abi": [
    {
      "inputs": [],
      "stateMutability": "nonpayable",
      "type": "constructor"
    },
    {
      "inputs": [
        {
          "internalType": "address",
          "name": "",
          "type": "address"
        }
      ],
      "name": "address_staker",
      "outputs": [
        {
          "internalType": "uint256",
          "name": "total_amount_staked",
          "type": "uint256"
        },
        {
          "internalType": "uint256",
          "name": "reputation_score",
          "type": "uint256"
        },
        {
          "internalType": "bool",
          "name": "is_nid_verified",
          "type": "bool"
        },
        {
          "internalType": "uint256",
          "name": "reward",
          "type": "uint256"
        },
        {
          "internalType": "uint256",
          "name": "balance",
          "type": "uint256"
        }
      ],
      "stateMutability": "view",
      "type": "function"
    },
    {
      "inputs": [
        {
          "internalType": "address",
          "name": "",
          "type": "address"
        }
      ],
      "name": "address_user",
      "outputs": [
        {
          "internalType": "address",
          "name": "user_address",
          "type": "address"
        },
        {
          "internalType": "uint256",
          "name": "credit_score",
          "type": "uint256"
        },
        {
          "internalType": "bool",
          "name": "is_nid_verified",
          "type": "bool"
        },
        {
          "internalType": "uint256",
          "name": "balance",
          "type": "uint256"
        }
      ],
      "stateMutability": "view",
      "type": "function"
    },
    {
      "inputs": [
        {
          "internalType": "uint256",
          "name": "",
          "type": "uint256"
        }
      ],
      "name": "groupId_borrowingGroup",
      "outputs": [
        {
          "internalType": "uint256",
          "name": "total_funded",
          "type": "uint256"
        },
        {
          "internalType": "enum DeFiPlatform.Status",
          "name": "status",
          "type": "uint8"
        }
      ],
      "stateMutability": "view",
      "type": "function"
    },
    {
      "inputs": [
        {
          "internalType": "uint256",
          "name": "",
          "type": "uint256"
        }
      ],
      "name": "groupVaultId_vault",
      "outputs": [
        {
          "internalType": "address",
          "name": "protocol_manager",
          "type": "address"
        },
        {
          "internalType": "uint256",
          "name": "vault_id",
          "type": "uint256"
        },
        {
          "internalType": "uint256",
          "name": "total_supply",
          "type": "uint256"
        },
        {
          "internalType": "uint256",
          "name": "remaining_supply",
          "type": "uint256"
        },
        {
          "internalType": "uint256",
          "name": "interest_rate",
          "type": "uint256"
        },
        {
          "internalType": "uint256",
          "name": "interest_earned",
          "type": "uint256"
        },
        {
          "internalType": "uint256",
          "name": "creation_date",
          "type": "uint256"
        },
        {
          "internalType": "enum DeFiPlatform.Status",
          "name": "status",
          "type": "uint8"
        }
      ],
      "stateMutability": "view",
      "type": "function"
    },
    {
      "inputs": [
        {
          "internalType": "uint256",
          "name": "",
          "type": "uint256"
        }
      ],
      "name": "loanId_loan",
      "outputs": [
        {
          "internalType": "uint256",
          "name": "amount",
          "type": "uint256"
        },
        {
          "internalType": "address",
          "name": "borrower",
          "type": "address"
        },
        {
          "internalType": "enum DeFiPlatform.Status",
          "name": "status",
          "type": "uint8"
        },
        {
          "internalType": "address",
          "name": "staker",
          "type": "address"
        },
        {
          "internalType": "uint256",
          "name": "start_date",
          "type": "uint256"
        },
        {
          "internalType": "uint256",
          "name": "vault_id",
          "type": "uint256"
        },
        {
          "internalType": "string",
          "name": "vault_type",
          "type": "string"
        },
        {
          "internalType": "uint256",
          "name": "borrowing_group_id",
          "type": "uint256"
        },
        {
          "internalType": "uint256",
          "name": "no_of_installments",
          "type": "uint256"
        },
        {
          "internalType": "uint256",
          "name": "no_of_installments_done",
          "type": "uint256"
        },
        {
          "internalType": "uint256",
          "name": "each_installment_amount",
          "type": "uint256"
        },
        {
          "internalType": "uint256",
          "name": "each_term",
          "type": "uint256"
        },
        {
          "internalType": "uint256",
          "name": "next_term_due_date",
          "type": "uint256"
        }
      ],
      "stateMutability": "view",
      "type": "function"
    },
    {
      "inputs": [
        {
          "internalType": "uint256",
          "name": "",
          "type": "uint256"
        }
      ],
      "name": "vaultId_vault",
      "outputs": [
        {
          "internalType": "address",
          "name": "vault_owner",
          "type": "address"
        },
        {
          "internalType": "uint256",
          "name": "vault_id",
          "type": "uint256"
        },
        {
          "internalType": "uint256",
          "name": "total_supply",
          "type": "uint256"
        },
        {
          "internalType": "uint256",
          "name": "remaining_supply",
          "type": "uint256"
        },
        {
          "internalType": "uint256",
          "name": "interest_rate",
          "type": "uint256"
        },
        {
          "internalType": "uint256",
          "name": "interest_earned",
          "type": "uint256"
        },
        {
          "internalType": "uint256",
          "name": "creation_date",
          "type": "uint256"
        },
        {
          "internalType": "enum DeFiPlatform.Status",
          "name": "status",
          "type": "uint8"
        }
      ],
      "stateMutability": "view",
      "type": "function"
    },
    {
      "inputs": [
        {
          "internalType": "bool",
          "name": "_is_nid_verified",
          "type": "bool"
        }
      ],
      "name": "become_staker",
      "outputs": [],
      "stateMutability": "nonpayable",
      "type": "function"
    },
    {
      "inputs": [
        {
          "internalType": "uint256",
          "name": "loan_id",
          "type": "uint256"
        }
      ],
      "name": "stake",
      "outputs": [],
      "stateMutability": "nonpayable",
      "type": "function"
    },
    {
      "inputs": [
        {
          "internalType": "uint256",
          "name": "total_amount",
          "type": "uint256"
        },
        {
          "internalType": "uint256",
          "name": "interest_rate",
          "type": "uint256"
        }
      ],
      "name": "create_individual_vault",
      "outputs": [],
      "stateMutability": "nonpayable",
      "type": "function"
    },
    {
      "inputs": [
        {
          "internalType": "uint256",
          "name": "interest_rate",
          "type": "uint256"
        }
      ],
      "name": "initiate_group_vault",
      "outputs": [],
      "stateMutability": "nonpayable",
      "type": "function"
    },
    {
      "inputs": [
        {
          "internalType": "uint256",
          "name": "_contribution",
          "type": "uint256"
        },
        {
          "internalType": "uint256",
          "name": "_vault_id",
          "type": "uint256"
        }
      ],
      "name": "join_group_vault",
      "outputs": [],
      "stateMutability": "nonpayable",
      "type": "function"
    },
    {
      "inputs": [
        {
          "internalType": "uint256",
          "name": "vault_id",
          "type": "uint256"
        },
        {
          "internalType": "string",
          "name": "vault_type",
          "type": "string"
        }
      ],
      "name": "approve_vault",
      "outputs": [],
      "stateMutability": "nonpayable",
      "type": "function"
    },
    {
      "inputs": [
        {
          "internalType": "uint256",
          "name": "_vault_id",
          "type": "uint256"
        },
        {
          "internalType": "string",
          "name": "_vault_type",
          "type": "string"
        },
        {
          "internalType": "uint256",
          "name": "_amount",
          "type": "uint256"
        },
        {
          "internalType": "uint256",
          "name": "_each_installment_amount",
          "type": "uint256"
        },
        {
          "internalType": "uint256",
          "name": "_no_of_installments",
          "type": "uint256"
        },
        {
          "internalType": "uint256",
          "name": "_each_term",
          "type": "uint256"
        }
      ],
      "name": "individual_borrow",
      "outputs": [],
      "stateMutability": "nonpayable",
      "type": "function"
    },
    {
      "inputs": [
        {
          "internalType": "uint256",
          "name": "_loan_id",
          "type": "uint256"
        },
        {
          "internalType": "string",
          "name": "vault_type",
          "type": "string"
        }
      ],
      "name": "approve_loan",
      "outputs": [],
      "stateMutability": "nonpayable",
      "type": "function"
    },
    {
      "inputs": [
        {
          "internalType": "uint256",
          "name": "_amount",
          "type": "uint256"
        }
      ],
      "name": "cashout_balance",
      "outputs": [],
      "stateMutability": "nonpayable",
      "type": "function"
    },
    {
      "inputs": [
        {
          "internalType": "uint256",
          "name": "_loan_id",
          "type": "uint256"
        },
        {
          "internalType": "string",
          "name": "_vault_type",
          "type": "string"
        }
      ],
      "name": "individual_installment_repay_wtih_interest",
      "outputs": [],
      "stateMutability": "payable",
      "type": "function"
    },
    {
      "inputs": [
        {
          "internalType": "address",
          "name": "user_address",
          "type": "address"
        }
      ],
      "name": "update_credit_score",
      "outputs": [
        {
          "internalType": "uint256",
          "name": "",
          "type": "uint256"
        }
      ],
      "stateMutability": "nonpayable",
      "type": "function"
    },
    {
      "inputs": [
        {
          "internalType": "string",
          "name": "user_type",
          "type": "string"
        }
      ],
      "name": "add_balance",
      "outputs": [],
      "stateMutability": "payable",
      "type": "function"
    },
    {
      "inputs": [],
      "name": "add_user",
      "outputs": [],
      "stateMutability": "nonpayable",
      "type": "function"
    },
    {
      "inputs": [],
      "name": "get_balance",
      "outputs": [
        {
          "internalType": "uint256",
          "name": "",
          "type": "uint256"
        }
      ],
      "stateMutability": "view",
      "type": "function"
    },
    {
      "inputs": [],
      "name": "show_user",
      "outputs": [
        {
          "components": [
            {
              "internalType": "address",
              "name": "user_address",
              "type": "address"
            },
            {
              "internalType": "uint256",
              "name": "credit_score",
              "type": "uint256"
            },
            {
              "internalType": "bool",
              "name": "is_nid_verified",
              "type": "bool"
            },
            {
              "internalType": "uint256[]",
              "name": "loan_id",
              "type": "uint256[]"
            },
            {
              "internalType": "uint256",
              "name": "balance",
              "type": "uint256"
            }
          ],
          "internalType": "struct DeFiPlatform.User",
          "name": "",
          "type": "tuple"
        }
      ],
      "stateMutability": "view",
      "type": "function"
    },
    {
      "inputs": [],
      "name": "show_last_vault_id",
      "outputs": [
        {
          "internalType": "uint256",
          "name": "",
          "type": "uint256"
        }
      ],
      "stateMutability": "view",
      "type": "function"
    },
    {
      "inputs": [
        {
          "internalType": "uint256",
          "name": "amount",
          "type": "uint256"
        }
      ],
      "name": "withdraw_balance",
      "outputs": [],
      "stateMutability": "nonpayable",
      "type": "function"
    },
    {
      "inputs": [],
      "name": "show_contract_balance",
      "outputs": [
        {
          "internalType": "uint256",
          "name": "",
          "type": "uint256"
        }
      ],
      "stateMutability": "view",
      "type": "function"
    },
    {
      "inputs": [],
      "name": "show_all_individual_vault",
      "outputs": [
        {
          "components": [
            {
              "internalType": "address",
              "name": "vault_owner",
              "type": "address"
            },
            {
              "internalType": "uint256",
              "name": "vault_id",
              "type": "uint256"
            },
            {
              "internalType": "uint256",
              "name": "total_supply",
              "type": "uint256"
            },
            {
              "internalType": "uint256",
              "name": "remaining_supply",
              "type": "uint256"
            },
            {
              "internalType": "uint256",
              "name": "interest_rate",
              "type": "uint256"
            },
            {
              "internalType": "uint256",
              "name": "interest_earned",
              "type": "uint256"
            },
            {
              "internalType": "uint256",
              "name": "creation_date",
              "type": "uint256"
            },
            {
              "internalType": "enum DeFiPlatform.Status",
              "name": "status",
              "type": "uint8"
            }
          ],
          "internalType": "struct DeFiPlatform.Vault[]",
          "name": "",
          "type": "tuple[]"
        }
      ],
      "stateMutability": "view",
      "type": "function"
    },
    {
      "inputs": [],
      "name": "show_all_group_vault",
      "outputs": [
        {
          "components": [
            {
              "internalType": "address",
              "name": "protocol_manager",
              "type": "address"
            },
            {
              "internalType": "uint256",
              "name": "vault_id",
              "type": "uint256"
            },
            {
              "internalType": "uint256",
              "name": "total_supply",
              "type": "uint256"
            },
            {
              "internalType": "uint256",
              "name": "remaining_supply",
              "type": "uint256"
            },
            {
              "internalType": "uint256",
              "name": "interest_rate",
              "type": "uint256"
            },
            {
              "internalType": "uint256",
              "name": "interest_earned",
              "type": "uint256"
            },
            {
              "internalType": "uint256",
              "name": "creation_date",
              "type": "uint256"
            },
            {
              "components": [
                {
                  "internalType": "address",
                  "name": "member",
                  "type": "address"
                },
                {
                  "internalType": "uint256",
                  "name": "contribution",
                  "type": "uint256"
                }
              ],
              "internalType": "struct DeFiPlatform.Contribution[]",
              "name": "member_contribution",
              "type": "tuple[]"
            },
            {
              "internalType": "enum DeFiPlatform.Status",
              "name": "status",
              "type": "uint8"
            }
          ],
          "internalType": "struct DeFiPlatform.Group_Vault[]",
          "name": "",
          "type": "tuple[]"
        }
      ],
      "stateMutability": "view",
      "type": "function"
    },
    {
      "inputs": [],
      "name": "show_all_loan",
      "outputs": [
        {
          "components": [
            {
              "internalType": "uint256",
              "name": "amount",
              "type": "uint256"
            },
            {
              "internalType": "address",
              "name": "borrower",
              "type": "address"
            },
            {
              "internalType": "enum DeFiPlatform.Status",
              "name": "status",
              "type": "uint8"
            },
            {
              "internalType": "address",
              "name": "staker",
              "type": "address"
            },
            {
              "internalType": "uint256",
              "name": "start_date",
              "type": "uint256"
            },
            {
              "internalType": "uint256",
              "name": "vault_id",
              "type": "uint256"
            },
            {
              "internalType": "string",
              "name": "vault_type",
              "type": "string"
            },
            {
              "internalType": "uint256",
              "name": "borrowing_group_id",
              "type": "uint256"
            },
            {
              "internalType": "uint256",
              "name": "no_of_installments",
              "type": "uint256"
            },
            {
              "internalType": "uint256",
              "name": "no_of_installments_done",
              "type": "uint256"
            },
            {
              "internalType": "uint256",
              "name": "each_installment_amount",
              "type": "uint256"
            },
            {
              "internalType": "uint256",
              "name": "each_term",
              "type": "uint256"
            },
            {
              "internalType": "uint256",
              "name": "next_term_due_date",
              "type": "uint256"
            }
          ],
          "internalType": "struct DeFiPlatform.Loan[]",
          "name": "",
          "type": "tuple[]"
        }
      ],
      "stateMutability": "view",
      "type": "function"
    },
    {
      "inputs": [],
      "name": "time",
      "outputs": [
        {
          "internalType": "uint256",
          "name": "",
          "type": "uint256"
        }
      ],
      "stateMutability": "view",
      "type": "function"
    }
  ],
  "bytecode": "0x608060405234801561001057600080fd5b50600a80546001600160a01b031916331790556000600681905560078190556008819055600955612f9a806100466000396000f3fe6080604052600436106101b75760003560e01c806395c2adf6116100ec578063af95b2491161008a578063cd242c0311610064578063cd242c0314610626578063d17e88601461063b578063f4b89e301461065b578063f88fe111146106a057600080fd5b8063af95b249146105db578063c1cfb99a146105ee578063cc0da80e1461061357600080fd5b8063a694fc3a116100c6578063a694fc3a146104fc578063a7d4238d1461051c578063a94482a814610599578063ad113b6f146105bb57600080fd5b806395c2adf6146104a957806398150147146104c9578063a5efc37a146104e957600080fd5b806356e9bf0611610159578063756d93fc11610133578063756d93fc146103e457806376717d5a146104065780637cf02c2e146104745780638ddec51c1461048957600080fd5b806356e9bf061461036957806357cd792f14610389578063643d4973146103c257600080fd5b8063197ade0a11610195578063197ade0a146102855780632565b1b8146102a75780632574b5d8146102c757806351d020071461034957600080fd5b8063030c8368146101bc57806305a05d47146101e757806316ada54714610268575b600080fd5b3480156101c857600080fd5b506101d16106c0565b6040516101de9190612a9a565b60405180910390f35b3480156101f357600080fd5b506102546102023660046127d3565b6002602081905260009182526040909120805460018201549282015460038301546004840154600585015460068601546008909601546001600160a01b03909516969593949293919290919060ff1688565b6040516101de989796959493929190612971565b34801561027457600080fd5b50425b6040519081526020016101de565b34801561029157600080fd5b506102a56102a0366004612898565b610971565b005b3480156102b357600080fd5b506102a56102c23660046127d3565b610ad5565b3480156102d357600080fd5b506103196102e236600461274a565b60006020819052908152604090208054600182015460028301546004909301546001600160a01b0390921692909160ff9091169084565b604080516001600160a01b03909516855260208501939093529015159183019190915260608201526080016101de565b34801561035557600080fd5b5061027761036436600461274a565b610b95565b34801561037557600080fd5b506102a56103843660046127eb565b610d5b565b34801561039557600080fd5b506103a96103a43660046127d3565b610ee3565b6040516101de9d9c9b9a99989796959493929190612cbf565b3480156103ce57600080fd5b506103d7610fe1565b6040516101de9190612b94565b3480156103f057600080fd5b506103f9611159565b6040516101de9190612c36565b34801561041257600080fd5b506102546104213660046127d3565b6001602081905260009182526040909120805491810154600282015460038301546004840154600585015460068601546007909601546001600160a01b0390971696949593949293919290919060ff1688565b34801561048057600080fd5b50600754610277565b34801561049557600080fd5b506102a56104a4366004612898565b611227565b3480156104b557600080fd5b506102a56104c4366004612778565b611365565b3480156104d557600080fd5b506102a56104e43660046127d3565b61144e565b6102a56104f7366004612798565b6114b0565b34801561050857600080fd5b506102a56105173660046127d3565b6115ea565b34801561052857600080fd5b5061056a61053736600461274a565b600360205260009081526040902080546001820154600283015460048401546005909401549293919260ff909116919085565b6040516101de959493929190948552602085019390935290151560408401526060830152608082015260a00190565b3480156105a557600080fd5b506105ae611701565b6040516101de91906129c6565b3480156105c757600080fd5b506102a56105d63660046127eb565b6118e1565b6102a56105e93660046127eb565b611ccf565b3480156105fa57600080fd5b5033600090815260208190526040902060040154610277565b34801561061f57600080fd5b5047610277565b34801561063257600080fd5b506102a5611f8b565b34801561064757600080fd5b506102a5610656366004612830565b61202f565b34801561066757600080fd5b506106926106763660046127d3565b6005602052600090815260409020805460029091015460ff1682565b6040516101de929190612d49565b3480156106ac57600080fd5b506102a56106bb3660046127d3565b612237565b60095460609060008167ffffffffffffffff8111156106ef57634e487b7160e01b600052604160045260246000fd5b60405190808252806020026020018201604052801561079457816020015b610781604080516101a0810182526000808252602082018190529091820190815260200160006001600160a01b031681526020016000815260200160008152602001606081526020016000815260200160008152602001600081526020016000815260200160008152602001600081525090565b81526020019060019003908161070d5790505b50905060015b82811161096a5760008181526004602090815260409182902082516101a0810184528154815260018201546001600160a01b0381169382019390935292909190830190600160a01b900460ff16600281111561080657634e487b7160e01b600052602160045260246000fd5b600281111561082557634e487b7160e01b600052602160045260246000fd5b815260028201546001600160a01b03166020820152600382015460408201526004820154606082015260058201805460809092019161086390612ee2565b80601f016020809104026020016040519081016040528092919081815260200182805461088f90612ee2565b80156108dc5780601f106108b1576101008083540402835291602001916108dc565b820191906000526020600020905b8154815290600101906020018083116108bf57829003601f168201915b505050918352505060068201546020820152600782015460408201526008820154606082015260098201546080820152600a82015460a0820152600b9091015460c0909101528261092e600184612e9f565b8151811061094c57634e487b7160e01b600052603260045260246000fd5b6020026020010181905250808061096290612f1d565b91505061079a565b5092915050565b336000908152602081905260409020600401548211156109cf5760405162461bcd60e51b8152602060048201526014602482015273496e73756666696369656e742062616c616e636560601b60448201526064015b60405180910390fd5b3360009081526020819052604090206002015460ff161515600114610a2c5760405162461bcd60e51b8152602060048201526013602482015272139251081a5cc81b9bdd081d995c9a599a5959606a1b60448201526064016109c6565b33600090815260208181526040808320848452600292839052908320909101805491928592610a5c908490612d5d565b90915550506004810154610a71908490612e9f565b6004919091015560408051808201825233815260208082019485526000938452600280825292842060070180546001808201835591865291909420915192020180546001600160a01b0319166001600160a01b039092169190911781559151910155565b3360009081526020819052604090206004810154821115610b4a5760405162461bcd60e51b815260206004820152602960248201527f776974686472617720616d6f756e74206973206d6f7265207468616e20796f75604482015268722062616c616e636560b81b60648201526084016109c6565b604051339083156108fc029084906000818181858888f19350505050158015610b77573d6000803e3d6000fd5b5081816004016000828254610b8c9190612e9f565b90915550505050565b6001600160a01b03811660009081526020819052604081206003810154828080808080805b87811015610cab576000600460008b6003018481548110610beb57634e487b7160e01b600052603260045260246000fd5b90600052602060002001548152602001908152602001600020905080600901548160080154610c1a9190612e80565b610c249089612d5d565b97506201518081600a0154610c399190612d75565b8160080154610c489190612e80565b610c529087612d5d565b9550806003015442610c649190612e9f565b935080600a0154600014610c9357600a810154610c819085612d75565b8160080154610c909190612e9f565b94505b60080154955080610ca381612f1d565b915050610bba565b508315610cbf57610cbc8487612d75565b90505b6000610ccc846014612e80565b610cd7600a84612d75565b610ce288600a612e80565b610cee6103e88b612d75565b610cf98c6005612e80565b610d039190612d5d565b610d0d9190612d5d565b610d179190612d5d565b610d219190612e9f565b90506064811115610d45575050606460019097018790555094979650505050505050565b6001909801889055509598975050505050505050565b604080518082018252600a8152691a5b991a5d9a591d585b60b21b602080830191909152825180840184526005815264067726f75760dc1b818301529251919291610da891849101612955565b6040516020818303038152906040528051906020012083604051602001610dcf9190612955565b604051602081830303815290604052805190602001201415610e3b576000848152600160205260409020546001600160a01b031615610e3b57600084815260016020819052604090912060078101805460ff191690921790915542600682015560028101546003909101555b80604051602001610e4c9190612955565b6040516020818303038152906040528051906020012083604051602001610e739190612955565b604051602081830303815290604052805190602001201415610edd576000848152600260205260409020546001600160a01b031615610edd57600084815260026020819052604090912060088101805460ff19166001179055426006820155908101546003909101555b50505050565b600460208190526000918252604090912080546001820154600283015460038401549484015460058501805494966001600160a01b0380861697600160a01b90960460ff16969416949093909190610f3a90612ee2565b80601f0160208091040260200160405190810160405280929190818152602001828054610f6690612ee2565b8015610fb35780601f10610f8857610100808354040283529160200191610fb3565b820191906000526020600020905b815481529060010190602001808311610f9657829003601f168201915b50505050509080600601549080600701549080600801549080600901549080600a01549080600b015490508d565b60075460609060008167ffffffffffffffff81111561101057634e487b7160e01b600052604160045260246000fd5b60405190808252806020026020018201604052801561104957816020015b6110366124c1565b81526020019060019003908161102e5790505b50905060015b82811161096a5760008181526001602081815260409283902083516101008101855281546001600160a01b031681529281015491830191909152600280820154938301939093526003810154606083015260048101546080830152600581015460a0830152600681015460c083015260078101549192909160e084019160ff909116908111156110ef57634e487b7160e01b600052602160045260246000fd5b600281111561110e57634e487b7160e01b600052602160045260246000fd5b9052508261111d600184612e9f565b8151811061113b57634e487b7160e01b600052603260045260246000fd5b6020026020010181905250808061115190612f1d565b91505061104f565b6040805160a08101825260008082526020820181905291810182905260608082015260808101919091523360009081526020818152604091829020825160a08101845281546001600160a01b03168152600182015481840152600282015460ff16151581850152600382018054855181860281018601909652808652919492936060860193929083018282801561120f57602002820191906000526020600020905b8154815260200190600101908083116111fb575b50505050508152602001600482015481525050905090565b33600090815260208190526040902060048101548311156112815760405162461bcd60e51b8152602060048201526014602482015273496e73756666696369656e742062616c616e636560601b60448201526064016109c6565b3360009081526020819052604090206002015460ff1615156001146112de5760405162461bcd60e51b8152602060048201526013602482015272139251081a5cc81b9bdd081d995c9a599a5959606a1b60448201526064016109c6565b8281600401546112ee9190612e9f565b6004820155600754600090611304906001612d5d565b60078054919250600061131683612f1d565b9091555050600081815260016020819052604090912080546001600160a01b0319163317815590810191909155600281018490556003810193909355506004820155600701805460ff19169055565b6040518060c0016040528060008152602001606481526020018215158152602001600a67ffffffffffffffff8111156113ae57634e487b7160e01b600052604160045260246000fd5b6040519080825280602002602001820160405280156113d7578160200160208202803683370190505b508152600060208083018290526040928301829052338252600380825291839020845181558482015160018201559284015160028401805460ff19169115159190911790556060840151805161143493850192919091019061252d565b506080820151600482015560a09091015160059091015550565b6000600854600161145f9190612d5d565b60068054919250600061147183612f1d565b9091555050600081815260026020526040902080546001600160a01b03191633178155600481019290925560088201805460ff19169055600190910155565b60408051808201825260048152633ab9b2b960e11b60208083019190915282518084018452600681526539ba30b5b2b960d11b8183015292519192916114f891849101612955565b604051602081830303815290604052805190602001208360405160200161151f9190612955565b604051602081830303815290604052805190602001201415611566573360009081526020819052604081206004018054349283929161155f908490612d5d565b9091555050505b806040516020016115779190612955565b604051602081830303815290604052805190602001208360405160200161159e9190612955565b6040516020818303038152906040528051906020012014156115e557336000908152600360205260408120600581018054919234926115de908490612d5d565b9091555050505b505050565b600081815260046020908152604080832054338452600390925290912060050154116116585760405162461bcd60e51b815260206004820152601d60248201527f596f7520646f6e2774206861766520656e6f7567682062616c616e636500000060448201526064016109c6565b60008181526004602090815260408083206002810180546001600160a01b031916339081179091559054908452600390925282206005018054919290916116a0908490612e9f565b909155505060009081526004602081815260408084208054338652600380855292862090815593835260019081015493909101805491820181558452922090910180546001600160a01b0319166001600160a01b0392909216919091179055565b60085460609060008167ffffffffffffffff81111561173057634e487b7160e01b600052604160045260246000fd5b60405190808252806020026020018201604052801561176957816020015b611756612592565b81526020019060019003908161174e5790505b50905060015b82811161096a57600081815260026020818152604080842081516101208101835281546001600160a01b0316815260018201548185015293810154848301526003810154606085015260048101546080850152600581015460a0850152600681015460c08501526007810180548351818602810186019094528084529495919460e08701949192909184015b82821015611843576000848152602090819020604080518082019091526002850290910180546001600160a01b031682526001908101548284015290835290920191016117fb565b50505090825250600882015460209091019060ff16600281111561187757634e487b7160e01b600052602160045260246000fd5b600281111561189657634e487b7160e01b600052602160045260246000fd5b905250826118a5600184612e9f565b815181106118c357634e487b7160e01b600052603260045260246000fd5b602002602001018190525080806118d990612f1d565b91505061176f565b604080518082018252600a8152691a5b991a5d9a591d585b60b21b602080830191909152825180840184526005815264067726f75760dc1b81830152925191929161192e91849101612955565b60405160208183030381529060405280519060200120836040516020016119559190612955565b604051602081830303815290604052805190602001201415611b005760008481526004602081815260408084208054930154845260019091529091206003015410156119e35760405162461bcd60e51b815260206004820152601c60248201527f4e6f7420656e6f7567682066756e6420696e20746865207661756c740000000060448201526064016109c6565b6000848152600460205260409020600201546001600160a01b0316611a3c5760405162461bcd60e51b815260206004820152600f60248201526e139bc81cdd185ad95c88199bdd5b99608a1b60448201526064016109c6565b60008481526004602081815260408084206001808201546001600160a01b0316865285845291852060038101805493840181558652838620909201899055888552918390529054918101805491939091611a97908490612d5d565b909155505060008581526004602081815260408084208054930154845260019091528220600301805491929091611acf908490612e9f565b909155505050600084815260046020526040902060018101805460ff60a01b1916600160a01b179055426003909101555b80604051602001611b119190612955565b6040516020818303038152906040528051906020012083604051602001611b389190612955565b604051602081830303815290604052805190602001201415610edd576000848152600460208181526040808420805493015484526002909152909120600301541015611bc65760405162461bcd60e51b815260206004820152601c60248201527f4e6f7420656e6f7567682066756e6420696e20746865207661756c740000000060448201526064016109c6565b6000848152600460205260409020600201546001600160a01b0316611c1f5760405162461bcd60e51b815260206004820152600f60248201526e139bc81cdd185ad95c88199bdd5b99608a1b60448201526064016109c6565b600084815260046020818152604080842060018101546001600160a01b031685528483529084208885529183905254918101805491939091611c62908490612d5d565b909155505060008581526004602081815260408084208054930154845260029091528220600301805491929091611c9a908490612e9f565b909155505050600093845250506004602052506040902060018101805460ff60a01b1916600160a01b17905542600390910155565b600082815260046020526040812060090154908080611ced8561235f565b905080611e2e57600086815260046020818152604080842083015480855260019092529092209081015434871115611d7b5760405162461bcd60e51b815260206004820152602b60248201527f416d6f756e74206d75737420626520657175616c206f72206d6f72652074686160448201526a6e20656163685f7465726d60a81b60648201526084016109c6565b6000898152600460205260408120600801805460019290611d9d908490612d5d565b9091555060009050611daf8883612463565b905080836003016000828254611dc59190612d5d565b90915550611dd590508189612e9f565b9650611de2876005612490565b9550611dee8688612e9f565b6005840155611dfc33610b95565b5050506000888152600460208181526040808420600201546001600160a01b0316845260039091529091200184905550505b8060011415611f8357600086815260046020818152604080842083015480855260029092529092209081015434871115611ed05760405162461bcd60e51b815260206004820152603960248201527f416d6f756e74206d75737420626520657175616c206f72206d6f72652074686160448201527f6e206561636820696e7374616c6c6d656e7420616d6f756e740000000000000060648201526084016109c6565b6000898152600460205260408120600801805460019290611ef2908490612d5d565b9091555060009050611f048883612463565b905080836003016000828254611f1a9190612d5d565b90915550611f2a90508189612e9f565b9650611f37876005612490565b9550611f438688612e9f565b6005840155611f5133610b95565b5050506000888152600460208181526040808420600201546001600160a01b0316845260039091529091200184905550505b505050505050565b6040805160a0810182523380825260006020808401828152600185870181815287518581528085018952606088019081526080880186905295855284845296909320855181546001600160a01b0319166001600160a01b03909116178155905192810192909255935160028201805460ff1916911515919091179055905180519293919261201f9260038501920190612600565b5060808201518160040155905050565b620186a08411156120945760405162461bcd60e51b815260206004820152602960248201527f6578636565646564206c6f616e206c696d69742e204f6e6c79207570746f2031604482015268303030302074616b6160b81b60648201526084016109c6565b600060095460016120a59190612d5d565b6009805491925060006120b783612f1d565b9091555050604080516101a0810182528681523360208083019182526000838501818152606085018290526080850182905260a085018d905260c085018c905260e085018290526101008501899052610120850182905261014085018a9052610160850188905261018085018290528682526004909252939093208251815590516001820180546001600160a01b039092166001600160a01b0319831681178255945193948594926001600160a81b03191617600160a01b83600281111561218f57634e487b7160e01b600052602160045260246000fd5b021790555060608201516002820180546001600160a01b0319166001600160a01b039092169190911790556080820151600382015560a0820151600482015560c082015180516121e991600584019160209091019061263b565b5060e08201516006820155610100820151600782015561012082015160088201556101408201516009820155610160820151600a82015561018090910151600b909101555050505050505050565b336000908152602081905260409020600401548111156122995760405162461bcd60e51b815260206004820152601d60248201527f796f7520646f6e2774206861766520656e6f7567682062616c616e636500000060448201526064016109c6565b804710156122f55760405162461bcd60e51b815260206004820152602360248201527f4e6f7420656e6f7567682062616c616e636520696e2074686520636f6e74726160448201526231ba1760e91b60648201526084016109c6565b6000612302826001612490565b61230c9083612e9f565b604051909150339082156108fc029083906000818181858888f1935050505015801561233c573d6000803e3d6000fd5b503360009081526020819052604081206004018054849290610b8c908490612e9f565b604080518082018252600a8152691a5b991a5d9a591d585b60b21b602080830191909152825180840184526005815264067726f75760dc1b818301529251600093916123ad91849101612955565b60405160208183030381529060405280519060200120846040516020016123d49190612955565b6040516020818303038152906040528051906020012014156123fa575060009392505050565b8060405160200161240b9190612955565b60405160208183030381529060405280519060200120846040516020016124329190612955565b604051602081830303815290604052805190602001201415612458575060019392505050565b506101909392505050565b600080612471836064612d5d565b61247c856064612e80565b6124869190612d75565b9150505b92915050565b600082826002836124a282600a612dd8565b6124ac8486612e80565b6124b69190612d75565b979650505050505050565b60405180610100016040528060006001600160a01b031681526020016000815260200160008152602001600081526020016000815260200160008152602001600081526020016000600281111561252857634e487b7160e01b600052602160045260246000fd5b905290565b828054828255906000526020600020908101928215612582579160200282015b8281111561258257825182546001600160a01b0319166001600160a01b0390911617825560209092019160019091019061254d565b5061258e9291506126ae565b5090565b60405180610120016040528060006001600160a01b03168152602001600081526020016000815260200160008152602001600081526020016000815260200160008152602001606081526020016000600281111561252857634e487b7160e01b600052602160045260246000fd5b828054828255906000526020600020908101928215612582579160200282015b82811115612582578251825591602001919060010190612620565b82805461264790612ee2565b90600052602060002090601f0160209004810192826126695760008555612582565b82601f1061268257805160ff1916838001178555612582565b828001600101855582156125825791820182811115612582578251825591602001919060010190612620565b5b8082111561258e57600081556001016126af565b600082601f8301126126d3578081fd5b813567ffffffffffffffff808211156126ee576126ee612f4e565b604051601f8301601f19908116603f0116810190828211818310171561271657612716612f4e565b8160405283815286602085880101111561272e578485fd5b8360208701602083013792830160200193909352509392505050565b60006020828403121561275b578081fd5b81356001600160a01b0381168114612771578182fd5b9392505050565b600060208284031215612789578081fd5b81358015158114612771578182fd5b6000602082840312156127a9578081fd5b813567ffffffffffffffff8111156127bf578182fd5b6127cb848285016126c3565b949350505050565b6000602082840312156127e4578081fd5b5035919050565b600080604083850312156127fd578081fd5b82359150602083013567ffffffffffffffff81111561281a578182fd5b612826858286016126c3565b9150509250929050565b60008060008060008060c08789031215612848578182fd5b86359550602087013567ffffffffffffffff811115612865578283fd5b61287189828a016126c3565b96999698505050506040850135946060810135946080820135945060a09091013592509050565b600080604083850312156128aa578182fd5b50508035926020909101359150565b6000815180845260208085019450808401835b838110156128fc57815180516001600160a01b0316885283015183880152604090960195908201906001016128cc565b509495945050505050565b6003811061292557634e487b7160e01b600052602160045260246000fd5b9052565b60008151808452612941816020860160208601612eb6565b601f01601f19169290920160200192915050565b60008251612967818460208701612eb6565b9190910192915050565b6001600160a01b03891681526020810188905260408101879052606081018690526080810185905260a0810184905260c0810183905261010081016129b960e0830184612907565b9998505050505050505050565b60006020808301818452808551808352604092508286019150828160051b870101848801865b83811015612a8c57888303603f19018552815180516001600160a01b0316845261012081890151858a01528782015188860152606080830151908601526080808301519086015260a0808301519086015260c0808301519086015260e080830151818701839052612a5f838801826128b9565b92505050610100808301519250612a7881870184612907565b5095880195935050908601906001016129ec565b509098975050505050505050565b60006020808301818452808551808352604092508286019150828160051b870101848801865b83811015612a8c57603f19898403018552815180518452878101516001600160a01b031688850152868101516101a090612afc89870182612907565b506060828101516001600160a01b0316908601526080808301519086015260a0808301519086015260c080830151818701839052612b3c83880182612929565b60e0858101519089015261010080860151908901526101208086015190890152610140808601519089015261016080860151908901526101809485015194909701939093525050509386019390860190600101612ac0565b602080825282518282018190526000919060409081850190868401855b82811015612c2957815180516001600160a01b0316855286810151878601528581015186860152606080820151908601526080808201519086015260a0808201519086015260c0808201519086015260e09081015190612c1381870183612907565b5050610100939093019290850190600101612bb1565b5091979650505050505050565b602080825282516001600160a01b03168282015282810151604080840191909152830151151560608084019190915283015160a06080840152805160c0840181905260009291820190839060e08601905b80831015612ca75783518252928401926001929092019190840190612c87565b50608087015160a08701528094505050505092915050565b8d81526001600160a01b038d81166020830152600090612ce2604084018f612907565b808d166060840152508a60808301528960a08301526101a060c0830152612d0d6101a083018a612929565b60e08301989098525061010081019590955261012085019390935261014084019190915261016083015261018090910152979650505050505050565b828152604081016127716020830184612907565b60008219821115612d7057612d70612f38565b500190565b600082612d9057634e487b7160e01b81526012600452602481fd5b500490565b600181815b80851115612dd0578160001904821115612db657612db6612f38565b80851615612dc357918102915b93841c9390800290612d9a565b509250929050565b60006127718383600082612dee5750600161248a565b81612dfb5750600061248a565b8160018114612e115760028114612e1b57612e37565b600191505061248a565b60ff841115612e2c57612e2c612f38565b50506001821b61248a565b5060208310610133831016604e8410600b8410161715612e5a575081810a61248a565b612e648383612d95565b8060001904821115612e7857612e78612f38565b029392505050565b6000816000190483118215151615612e9a57612e9a612f38565b500290565b600082821015612eb157612eb1612f38565b500390565b60005b83811015612ed1578181015183820152602001612eb9565b83811115610edd5750506000910152565b600181811c90821680612ef657607f821691505b60208210811415612f1757634e487b7160e01b600052602260045260246000fd5b50919050565b6000600019821415612f3157612f31612f38565b5060010190565b634e487b7160e01b600052601160045260246000fd5b634e487b7160e01b600052604160045260246000fdfea2646970667358221220bd99ad0baf71d0492f286a2f24bb9c37076ea032990ac22c54640393f8deaeec64736f6c63430008040033",
  "immutableReferences": {},
  "source": "// SPDX-License-Identifier: MIT\r\npragma solidity ^0.8.0;\r\n\r\ncontract DeFiPlatform {\r\n    // IERC20 public stablecoin;\r\n\r\n    struct User {\r\n        address user_address;\r\n        uint256 credit_score;\r\n        bool is_nid_verified;\r\n        uint256[] loan_id;\r\n        uint256 balance;\r\n    }\r\n\r\n    struct Loan {\r\n        uint256 amount;\r\n        address borrower;\r\n        Status status;\r\n        address staker;\r\n        uint256 start_date;\r\n        uint256 vault_id;\r\n        string vault_type;\r\n        uint256 borrowing_group_id;\r\n        uint256 no_of_installments;\r\n        uint256 no_of_installments_done;\r\n        uint256 each_installment_amount;\r\n        uint256 each_term;\r\n        uint256 next_term_due_date;\r\n    }\r\n\r\n    struct Staker {\r\n        uint256 total_amount_staked;\r\n        uint256 reputation_score;\r\n        bool is_nid_verified;\r\n        address[] referred_borrower;\r\n        uint256 reward;\r\n        uint256 balance;\r\n    }\r\n\r\n    struct Vault {\r\n        address vault_owner;\r\n        uint256 vault_id;\r\n        uint256 total_supply;\r\n        uint256 remaining_supply;\r\n        uint256 interest_rate;\r\n        uint256 interest_earned;\r\n        uint256 creation_date;\r\n        Status status;\r\n    }\r\n    struct Group_Vault {\r\n        address protocol_manager;\r\n        uint256 vault_id;\r\n        uint256 total_supply;\r\n        uint256 remaining_supply;\r\n        uint256 interest_rate;\r\n        uint256 interest_earned;\r\n        uint256 creation_date;\r\n        Contribution[] member_contribution;\r\n        Status status;\r\n    }\r\n    struct Contribution {\r\n        address member;\r\n        uint256 contribution;\r\n    }\r\n\r\n    struct Borrowing_group {\r\n        uint256 total_funded;\r\n        mapping(address => mapping(uint256 => uint256)) member_loanId_votes;\r\n        Status status;\r\n    }\r\n\r\n    enum Status {\r\n        pending,\r\n        approved,\r\n        cancelled\r\n    }\r\n\r\n    mapping(address => User) public address_user;\r\n    mapping(uint256 => Vault) public vaultId_vault;\r\n    mapping(uint256 => Group_Vault) public groupVaultId_vault;\r\n    mapping(address => Staker) public address_staker;\r\n    mapping(uint256 => Loan) public loanId_loan;\r\n    mapping(uint256 => Borrowing_group) public groupId_borrowingGroup;\r\n\r\n    uint256 private last_borrowing_group_id;\r\n    uint256 private last_vault_id;\r\n    uint256 private last_group_vault_id;\r\n    uint256 private last_loan_id;\r\n    address owner;\r\n\r\n    constructor() {\r\n        //IERC20 _stablecoin\r\n        // stablecoin = _stablecoin;\r\n        owner = payable(msg.sender);\r\n        last_borrowing_group_id = 0;\r\n        last_vault_id = 0;\r\n        last_group_vault_id = 0;\r\n        last_loan_id = 0;\r\n    }\r\n\r\n    function become_staker(bool _is_nid_verified) external {\r\n        address_staker[msg.sender] = Staker({\r\n            total_amount_staked: 0,\r\n            reputation_score: 100,\r\n            is_nid_verified: _is_nid_verified,\r\n            balance: 0,\r\n            reward: 0,\r\n            referred_borrower: new address[](10)\r\n        });\r\n    }\r\n\r\n    function stake(uint256 loan_id) external {\r\n        require(\r\n            address_staker[msg.sender].balance > loanId_loan[loan_id].amount,\r\n            \"You don't have enough balance\"\r\n        );\r\n\r\n        loanId_loan[loan_id].staker = msg.sender;\r\n        address_staker[msg.sender].balance -= loanId_loan[loan_id].amount;\r\n        address_staker[msg.sender].total_amount_staked = loanId_loan[loan_id]\r\n            .amount;\r\n        address_staker[msg.sender].referred_borrower.push(\r\n            loanId_loan[loan_id].borrower\r\n        );\r\n\r\n        //emit en event to the PM.\r\n    }\r\n\r\n    function create_individual_vault(\r\n        uint256 total_amount,\r\n        uint256 interest_rate\r\n    ) external {\r\n        User storage user = address_user[msg.sender];\r\n        require(user.balance >= total_amount, \"Insufficient balance\");\r\n        require(\r\n            address_user[msg.sender].is_nid_verified == true,\r\n            \"NID is not verified\"\r\n        );\r\n\r\n        user.balance = user.balance - total_amount;\r\n\r\n        uint256 vault_id = last_vault_id + 1;\r\n        last_vault_id++;\r\n        // vaultId_vault[vault_id] = Vault({});\r\n        Vault storage vault = vaultId_vault[vault_id];\r\n        vault.vault_owner = msg.sender;\r\n        vault.vault_id = vault_id;\r\n        vault.total_supply = total_amount;\r\n        vault.remaining_supply = total_amount; //remaining balance\r\n        vault.interest_rate = interest_rate;\r\n        vault.status = Status.pending;\r\n        // emit VaultCreated(vaultId, msg.sender, interestRate, isGroupVault);\r\n    }\r\n\r\n    function initiate_group_vault(uint256 interest_rate) external {\r\n        // require(\r\n        //     msg.sender == pm_address;\r\n        //     \"only pm can initiate a group vault\"\r\n        // ); //\r\n        uint256 vault_id = last_group_vault_id + 1;\r\n        last_borrowing_group_id++;\r\n        Group_Vault storage group_vault = groupVaultId_vault[vault_id];\r\n        group_vault.protocol_manager = msg.sender;\r\n        group_vault.interest_rate = interest_rate;\r\n        group_vault.status = Status.pending;\r\n        group_vault.vault_id = vault_id;\r\n    }\r\n\r\n    function join_group_vault(uint256 _contribution, uint256 _vault_id)\r\n        external\r\n    {\r\n        require(\r\n            address_user[msg.sender].balance >= _contribution,\r\n            \"Insufficient balance\"\r\n        );\r\n        require(\r\n            address_user[msg.sender].is_nid_verified == true,\r\n            \"NID is not verified\"\r\n        );\r\n        User storage user = address_user[msg.sender];\r\n        groupVaultId_vault[_vault_id].total_supply += _contribution;\r\n        user.balance = user.balance - _contribution;\r\n\r\n        Contribution memory contribution = Contribution({\r\n            member: msg.sender,\r\n            contribution: _contribution\r\n        });\r\n        groupVaultId_vault[_vault_id].member_contribution.push(contribution);\r\n    }\r\n\r\n    function approve_vault(uint256 vault_id, string memory vault_type)\r\n        external\r\n    {\r\n        string memory _individual = \"individual\";\r\n        string memory _group = \"group\";\r\n        //for individual vault\r\n        if (\r\n            keccak256(abi.encodePacked(vault_type)) ==\r\n            keccak256(abi.encodePacked(_individual))\r\n        ) {\r\n            if (vaultId_vault[vault_id].vault_owner != address(0)) {\r\n                vaultId_vault[vault_id].status = Status.approved;\r\n                vaultId_vault[vault_id].creation_date = block.timestamp;\r\n                vaultId_vault[vault_id].remaining_supply = vaultId_vault[\r\n                    vault_id\r\n                ].total_supply;\r\n            }\r\n        }\r\n        if (\r\n            keccak256(abi.encodePacked(vault_type)) ==\r\n            keccak256(abi.encodePacked(_group))\r\n        ) {\r\n            if (groupVaultId_vault[vault_id].protocol_manager != address(0)) {\r\n                groupVaultId_vault[vault_id].status = Status.approved;\r\n                groupVaultId_vault[vault_id].creation_date = block.timestamp;\r\n                groupVaultId_vault[vault_id]\r\n                    .remaining_supply = groupVaultId_vault[vault_id]\r\n                    .total_supply;\r\n            }\r\n        }\r\n    }\r\n\r\n    function individual_borrow(\r\n        uint256 _vault_id,\r\n        string memory _vault_type,\r\n        uint256 _amount,\r\n        uint256 _each_installment_amount,\r\n        uint256 _no_of_installments,\r\n        uint256 _each_term\r\n    ) external {\r\n        require(_amount <= 100000, \"exceeded loan limit. Only upto 10000 taka\");\r\n        uint256 loan_id = last_loan_id + 1;\r\n        last_loan_id++;\r\n\r\n        Loan memory loan = Loan({\r\n            borrower: msg.sender,\r\n            amount: _amount,\r\n            status: Status.pending,\r\n            vault_id: _vault_id,\r\n            vault_type: _vault_type,\r\n            no_of_installments: _no_of_installments,\r\n            each_installment_amount: _each_installment_amount,\r\n            each_term: _each_term,\r\n            staker: address(0), // Add a default value or a suitable value for the staker field\r\n            start_date: 0, // Add a default value or a suitable value for the start_date field\r\n            borrowing_group_id: 0, // Add a default value or a suitable value for the borrowing_group_id field\r\n            no_of_installments_done: 0, // Add a default value for the no_of_installments_done field\r\n            next_term_due_date: 0\r\n        });\r\n        loanId_loan[loan_id] = loan;\r\n    }\r\n\r\n    function approve_loan(uint256 _loan_id, string memory vault_type) external {\r\n        string memory _individual = \"individual\";\r\n        string memory _group = \"group\";\r\n        //for individual vault\r\n        if (\r\n            keccak256(abi.encodePacked(vault_type)) ==\r\n            keccak256(abi.encodePacked(_individual))\r\n        ) {\r\n            require(\r\n                vaultId_vault[loanId_loan[_loan_id].vault_id]\r\n                    .remaining_supply >= loanId_loan[_loan_id].amount,\r\n                \"Not enough fund in the vault\"\r\n            );\r\n            require(\r\n                loanId_loan[_loan_id].staker != address(0),\r\n                \"No staker found\"\r\n            );\r\n\r\n            User storage user = address_user[loanId_loan[_loan_id].borrower];\r\n            user.loan_id.push(_loan_id);\r\n            user.balance += loanId_loan[_loan_id].amount;\r\n            vaultId_vault[loanId_loan[_loan_id].vault_id]\r\n                .remaining_supply -= loanId_loan[_loan_id].amount;\r\n            loanId_loan[_loan_id].status = Status.approved;\r\n            loanId_loan[_loan_id].start_date = block.timestamp;\r\n        }\r\n        if (\r\n            keccak256(abi.encodePacked(vault_type)) ==\r\n            keccak256(abi.encodePacked(_group))\r\n        ) {\r\n            require(\r\n                groupVaultId_vault[loanId_loan[_loan_id].vault_id]\r\n                    .remaining_supply >= loanId_loan[_loan_id].amount,\r\n                \"Not enough fund in the vault\"\r\n            );\r\n            require(\r\n                loanId_loan[_loan_id].staker != address(0),\r\n                \"No staker found\"\r\n            );\r\n\r\n            User storage user = address_user[loanId_loan[_loan_id].borrower];\r\n            user.balance += loanId_loan[_loan_id].amount;\r\n            groupVaultId_vault[loanId_loan[_loan_id].vault_id]\r\n                .remaining_supply -= loanId_loan[_loan_id].amount;\r\n            loanId_loan[_loan_id].status = Status.approved;\r\n            loanId_loan[_loan_id].start_date = block.timestamp;\r\n        }\r\n    }\r\n\r\n    function cashout_balance(uint256 _amount) external {\r\n        // require(msg.sender == owner, \"Only the owner can transfer money from contract.\");\r\n        require(\r\n            address_user[msg.sender].balance >= _amount,\r\n            \"you don't have enough balance\"\r\n        );\r\n        require(\r\n            address(this).balance >= _amount,\r\n            \"Not enough balance in the contract.\"\r\n        );\r\n        uint256 cashout_amount = _amount - calculate_fees(_amount, 1);\r\n        payable(msg.sender).transfer(cashout_amount);\r\n        address_user[msg.sender].balance -= _amount;\r\n    }\r\n\r\n    function individual_installment_repay_wtih_interest(\r\n        uint256 _loan_id,\r\n        string memory _vault_type\r\n    ) external payable {\r\n        uint256 installment_amount = loanId_loan[_loan_id]\r\n            .each_installment_amount;\r\n        uint256 interest_earned;\r\n        uint256 staker_fee;\r\n        uint256 vault_type = detect_vault(_vault_type);\r\n        if (vault_type == 0) {\r\n            uint256 vault_id = loanId_loan[_loan_id].vault_id;\r\n            Vault storage vault = vaultId_vault[vault_id];\r\n            uint256 interest_rate = vault.interest_rate;\r\n            require(\r\n                msg.value >= installment_amount,\r\n                \"Amount must be equal or more than each_term\"\r\n            );\r\n            loanId_loan[_loan_id].no_of_installments_done += 1;\r\n            uint256 capital_amount = breakdown_repayment(\r\n                installment_amount,\r\n                interest_rate\r\n            );\r\n            vault.remaining_supply += capital_amount;\r\n            interest_earned = installment_amount - capital_amount;\r\n            staker_fee = calculate_fees(interest_earned, 5);\r\n            vault.interest_earned = interest_earned - staker_fee;\r\n            //calculate credit score for borrower\r\n            update_credit_score(msg.sender);\r\n            // give staker the reward\r\n            address_staker[loanId_loan[_loan_id].staker].reward = staker_fee;\r\n        }\r\n        if (vault_type == 1) {\r\n            uint256 vault_id = loanId_loan[_loan_id].vault_id;\r\n            Group_Vault storage vault = groupVaultId_vault[vault_id];\r\n            uint256 interest_rate = vault.interest_rate;\r\n            require(\r\n                msg.value >= installment_amount,\r\n                \"Amount must be equal or more than each installment amount\"\r\n            );\r\n            loanId_loan[_loan_id].no_of_installments_done += 1;\r\n            // add the interest\r\n            uint256 capital_amount = breakdown_repayment(\r\n                installment_amount,\r\n                interest_rate\r\n            );\r\n            vault.remaining_supply += capital_amount;\r\n            interest_earned = installment_amount - capital_amount;\r\n            staker_fee = calculate_fees(interest_earned, 5);\r\n            vault.interest_earned = interest_earned - staker_fee;\r\n            //calculate credit score for borrower\r\n            update_credit_score(msg.sender);\r\n            // give staker the reward\r\n            address_staker[loanId_loan[_loan_id].staker].reward = staker_fee;\r\n        }\r\n    }\r\n\r\n    function detect_vault(string memory _vault_type)\r\n        internal\r\n        pure\r\n        returns (uint256)\r\n    {\r\n        string memory _individual = \"individual\";\r\n        string memory _group = \"group\";\r\n\r\n        if (\r\n            keccak256(abi.encodePacked(_vault_type)) ==\r\n            keccak256(abi.encodePacked(_individual))\r\n        ) {\r\n            return 0;\r\n        }\r\n        if (\r\n            keccak256(abi.encodePacked(_vault_type)) ==\r\n            keccak256(abi.encodePacked(_group))\r\n        ) {\r\n            return 1;\r\n        }\r\n        return 400;\r\n    }\r\n\r\n\r\n    function update_credit_score(address user_address)\r\n        public\r\n        returns (uint256)\r\n    {\r\n        User storage user = address_user[user_address];\r\n\r\n        uint256 total_loans_taken = user.loan_id.length;\r\n        uint256 total_loan_repaid = 0;\r\n        uint256 timely_repayments = 0;\r\n        uint256 total_repayment_days = 0;\r\n        uint256 defaults = 0;\r\n        uint256 time_elapsed;\r\n        uint256 avg_repayment_per_day = 0;\r\n\r\n        for (uint256 i = 0; i < total_loans_taken; i++) {\r\n            Loan storage loan = loanId_loan[user.loan_id[i]];\r\n            total_loan_repaid +=\r\n                loan.no_of_installments_done *\r\n                loan.each_installment_amount;\r\n            total_repayment_days +=\r\n                loan.no_of_installments_done *\r\n                (loan.each_term / 86400);\r\n            time_elapsed = block.timestamp - loan.start_date;\r\n            if (loan.each_term != 0) {\r\n                defaults =\r\n                    loan.no_of_installments_done -\r\n                    (time_elapsed / loan.each_term);\r\n            }\r\n            timely_repayments = loan.no_of_installments_done;\r\n        }\r\n\r\n        if (total_repayment_days != 0) {\r\n            avg_repayment_per_day = total_loan_repaid / total_repayment_days;\r\n        }\r\n\r\n        uint256 new_credit_score = (total_loans_taken * 5) +\r\n            (total_loan_repaid / 1000) +\r\n            (timely_repayments * 10) +\r\n            (avg_repayment_per_day / 10) -\r\n            (defaults * 20);\r\n\r\n        if (new_credit_score > 100) {\r\n            user.credit_score = 100;\r\n            return 100;\r\n        } else if (new_credit_score < 0) {\r\n            user.credit_score = 0;\r\n            return 0;\r\n        } else {\r\n            user.credit_score = new_credit_score;\r\n            return new_credit_score;\r\n        }\r\n    }\r\n\r\n    function breakdown_repayment(\r\n        uint256 repayment_amount,\r\n        uint256 interest_rate\r\n    ) internal pure returns (uint256) {\r\n        uint256 capital_amount = (100 * repayment_amount) /\r\n            (100 + interest_rate);\r\n        return capital_amount;\r\n    }\r\n\r\n    function calculate_fees(uint256 _amount, uint256 rate)\r\n        internal\r\n        pure\r\n        returns (uint256)\r\n    {\r\n        uint256 x = _amount;\r\n        uint256 y = rate; //fee = 1%\r\n        uint256 decimals = 2; // Number of decimal places\r\n\r\n        uint256 result = (x * y) / (10**decimals);\r\n        return result;\r\n    }\r\n\r\n    function calculate_interest(uint256 _amount, uint256 interest_rate)\r\n        internal\r\n        pure\r\n        returns (uint256)\r\n    {\r\n        uint256 x = _amount;\r\n        uint256 y = interest_rate; //interest_rate(1%-10%)\r\n        uint256 decimals = 2; // Number of decimal places\r\n\r\n        uint256 result = (x * y) / (10**decimals);\r\n        return result;\r\n    }\r\n\r\n    function add_balance(string memory user_type) external payable {\r\n        string memory _user = \"user\";\r\n        string memory _staker = \"staker\";\r\n        if (\r\n            keccak256(abi.encodePacked(user_type)) ==\r\n            keccak256(abi.encodePacked(_user))\r\n        ) {\r\n            uint256 amount = msg.value;\r\n            address_user[msg.sender].balance += amount;\r\n        }\r\n        if (\r\n            keccak256(abi.encodePacked(user_type)) ==\r\n            keccak256(abi.encodePacked(_staker))\r\n        ) {\r\n            Staker storage staker = address_staker[msg.sender];\r\n            staker.balance += msg.value;\r\n        }\r\n    }\r\n\r\n    function add_user() external {\r\n        address_user[msg.sender] = User({\r\n            user_address: msg.sender,\r\n            is_nid_verified: true,\r\n            loan_id: new uint256[](0),\r\n            balance: 0,\r\n            credit_score: 0\r\n        });\r\n    }\r\n\r\n    function get_balance() external view returns (uint256) {\r\n        return address_user[msg.sender].balance;\r\n    }\r\n\r\n    function show_user() external view returns (User memory) {\r\n        return address_user[msg.sender];\r\n    }\r\n\r\n    function show_last_vault_id() external view returns (uint256) {\r\n        return last_vault_id;\r\n    }\r\n\r\n    function withdraw_balance(uint256 amount) external {\r\n        User storage user = address_user[msg.sender];\r\n        require(\r\n            amount <= user.balance,\r\n            \"withdraw amount is more than your balance\"\r\n        );\r\n        payable(msg.sender).transfer(amount);\r\n        user.balance -= amount;\r\n    }\r\n\r\n    function show_contract_balance() external view returns (uint256) {\r\n        return address(this).balance;\r\n    }\r\n\r\n    function show_all_individual_vault() public view returns (Vault[] memory) {\r\n        uint256 size = last_vault_id; // determine the size of the mapping\r\n        Vault[] memory vaultArray = new Vault[](size);\r\n\r\n        for (uint256 i = 1; i <= size; i++) {\r\n            vaultArray[i - 1] = vaultId_vault[i];\r\n        }\r\n        return vaultArray;\r\n    }\r\n\r\n    function show_all_group_vault() public view returns (Group_Vault[] memory) {\r\n        uint256 size = last_group_vault_id; // determine the size of the mapping\r\n        Group_Vault[] memory group_vautl_array = new Group_Vault[](size);\r\n\r\n        for (uint256 i = 1; i <= size; i++) {\r\n            group_vautl_array[i - 1] = groupVaultId_vault[i];\r\n        }\r\n        return group_vautl_array;\r\n    }\r\n\r\n    function show_all_loan() public view returns (Loan[] memory) {\r\n        uint256 size = last_loan_id; // determine the size of the mapping\r\n        Loan[] memory loanArray = new Loan[](size);\r\n\r\n        for (uint256 i = 1; i <= size; i++) {\r\n            loanArray[i - 1] = loanId_loan[i];\r\n        }\r\n        return loanArray;\r\n    }\r\n\r\n    function time() public view returns (uint256) {\r\n        return block.timestamp;\r\n    }\r\n}\r\n",
  "sourcePath": "H:\\WEB_3\\code\\microfinance--main\\truffle\\contracts\\mifi.sol",
  "compiler": {
    "name": "solc",
    "version": "0.8.4+commit.c7e474f2.Emscripten.clang"
  },
  "schemaVersion": "3.4.10",
  "updatedAt": "2023-05-16T23:51:16.595Z",
  "devdoc": {
    "kind": "dev",
    "methods": {},
    "version": 1
  },
  "userdoc": {
    "kind": "user",
    "methods": {},
    "version": 1
  }
}