{
  "contractName": "Mifi",
  "abi": [
    {
      "inputs": [],
      "stateMutability": "nonpayable",
      "type": "constructor"
    },
    {
      "inputs": [
        {
          "internalType": "address",
          "name": "",
          "type": "address"
        }
      ],
      "name": "address_staker",
      "outputs": [
        {
          "internalType": "uint256",
          "name": "total_amount_staked",
          "type": "uint256"
        },
        {
          "internalType": "uint256",
          "name": "reputation_score",
          "type": "uint256"
        },
        {
          "internalType": "bool",
          "name": "is_nid_verified",
          "type": "bool"
        },
        {
          "internalType": "uint256",
          "name": "reward",
          "type": "uint256"
        },
        {
          "internalType": "uint256",
          "name": "balance",
          "type": "uint256"
        }
      ],
      "stateMutability": "view",
      "type": "function",
      "constant": true
    },
    {
      "inputs": [
        {
          "internalType": "address",
          "name": "",
          "type": "address"
        }
      ],
      "name": "address_user",
      "outputs": [
        {
          "internalType": "address",
          "name": "user_address",
          "type": "address"
        },
        {
          "internalType": "uint256",
          "name": "credit_score",
          "type": "uint256"
        },
        {
          "internalType": "bool",
          "name": "is_nid_verified",
          "type": "bool"
        },
        {
          "internalType": "uint256",
          "name": "balance",
          "type": "uint256"
        }
      ],
      "stateMutability": "view",
      "type": "function",
      "constant": true
    },
    {
      "inputs": [
        {
          "internalType": "uint256",
          "name": "",
          "type": "uint256"
        }
      ],
      "name": "groupId_borrowingGroup",
      "outputs": [
        {
          "internalType": "uint256",
          "name": "total_funded",
          "type": "uint256"
        },
        {
          "internalType": "enum Mifi.Status",
          "name": "status",
          "type": "uint8"
        }
      ],
      "stateMutability": "view",
      "type": "function",
      "constant": true
    },
    {
      "inputs": [
        {
          "internalType": "uint256",
          "name": "",
          "type": "uint256"
        }
      ],
      "name": "loanId_loan",
      "outputs": [
        {
          "internalType": "uint256",
          "name": "amount",
          "type": "uint256"
        },
        {
          "internalType": "address",
          "name": "borrower",
          "type": "address"
        },
        {
          "internalType": "enum Mifi.Status",
          "name": "status",
          "type": "uint8"
        },
        {
          "internalType": "address",
          "name": "staker",
          "type": "address"
        },
        {
          "internalType": "uint256",
          "name": "start_date",
          "type": "uint256"
        },
        {
          "internalType": "uint256",
          "name": "vault_id",
          "type": "uint256"
        },
        {
          "internalType": "uint256",
          "name": "borrowing_group_id",
          "type": "uint256"
        },
        {
          "internalType": "uint256",
          "name": "no_of_installments",
          "type": "uint256"
        },
        {
          "internalType": "uint256",
          "name": "no_of_installments_done",
          "type": "uint256"
        },
        {
          "internalType": "uint256",
          "name": "each_installment_amount",
          "type": "uint256"
        },
        {
          "internalType": "uint256",
          "name": "each_term",
          "type": "uint256"
        }
      ],
      "stateMutability": "view",
      "type": "function",
      "constant": true
    },
    {
      "inputs": [
        {
          "internalType": "uint256",
          "name": "",
          "type": "uint256"
        }
      ],
      "name": "vaultId_vault",
      "outputs": [
        {
          "internalType": "address",
          "name": "vault_owner",
          "type": "address"
        },
        {
          "internalType": "uint256",
          "name": "total_supply",
          "type": "uint256"
        },
        {
          "internalType": "uint256",
          "name": "remaining_supply",
          "type": "uint256"
        },
        {
          "internalType": "uint256",
          "name": "interest_rate",
          "type": "uint256"
        },
        {
          "internalType": "uint256",
          "name": "interest_earned",
          "type": "uint256"
        },
        {
          "internalType": "uint256",
          "name": "creation_date",
          "type": "uint256"
        },
        {
          "internalType": "enum Mifi.Status",
          "name": "status",
          "type": "uint8"
        }
      ],
      "stateMutability": "view",
      "type": "function",
      "constant": true
    },
    {
      "inputs": [
        {
          "internalType": "bool",
          "name": "_is_nid_verified",
          "type": "bool"
        }
      ],
      "name": "become_staker",
      "outputs": [],
      "stateMutability": "nonpayable",
      "type": "function"
    },
    {
      "inputs": [
        {
          "internalType": "uint256",
          "name": "loan_id",
          "type": "uint256"
        }
      ],
      "name": "stake",
      "outputs": [],
      "stateMutability": "nonpayable",
      "type": "function"
    },
    {
      "inputs": [
        {
          "internalType": "uint256",
          "name": "total_amount",
          "type": "uint256"
        },
        {
          "internalType": "uint256",
          "name": "interest_rate",
          "type": "uint256"
        }
      ],
      "name": "create_individual_vault",
      "outputs": [],
      "stateMutability": "nonpayable",
      "type": "function"
    },
    {
      "inputs": [
        {
          "internalType": "uint256",
          "name": "interest_rate",
          "type": "uint256"
        }
      ],
      "name": "initiate_group_vault",
      "outputs": [],
      "stateMutability": "nonpayable",
      "type": "function"
    },
    {
      "inputs": [
        {
          "internalType": "uint256",
          "name": "contribution",
          "type": "uint256"
        },
        {
          "internalType": "uint256",
          "name": "vault_id",
          "type": "uint256"
        }
      ],
      "name": "join_group_vault",
      "outputs": [],
      "stateMutability": "nonpayable",
      "type": "function"
    },
    {
      "inputs": [
        {
          "internalType": "uint256",
          "name": "vault_id",
          "type": "uint256"
        }
      ],
      "name": "approve_vault",
      "outputs": [],
      "stateMutability": "nonpayable",
      "type": "function"
    },
    {
      "inputs": [
        {
          "internalType": "uint256",
          "name": "_vault_id",
          "type": "uint256"
        },
        {
          "internalType": "uint256",
          "name": "_amount",
          "type": "uint256"
        },
        {
          "internalType": "uint256",
          "name": "_each_installment_amount",
          "type": "uint256"
        },
        {
          "internalType": "uint256",
          "name": "_no_of_installments",
          "type": "uint256"
        },
        {
          "internalType": "uint256",
          "name": "_each_term",
          "type": "uint256"
        }
      ],
      "name": "individual_borrow",
      "outputs": [],
      "stateMutability": "nonpayable",
      "type": "function"
    },
    {
      "inputs": [
        {
          "internalType": "uint256",
          "name": "_loan_id",
          "type": "uint256"
        }
      ],
      "name": "approve_loan",
      "outputs": [],
      "stateMutability": "nonpayable",
      "type": "function"
    },
    {
      "inputs": [
        {
          "internalType": "uint256",
          "name": "_amount",
          "type": "uint256"
        }
      ],
      "name": "cashout_loan",
      "outputs": [],
      "stateMutability": "nonpayable",
      "type": "function"
    },
    {
      "inputs": [
        {
          "internalType": "uint256",
          "name": "_loan_id",
          "type": "uint256"
        }
      ],
      "name": "individual_installment_repay_wtih_interest",
      "outputs": [],
      "stateMutability": "payable",
      "type": "function",
      "payable": true
    },
    {
      "inputs": [
        {
          "internalType": "string",
          "name": "user_type",
          "type": "string"
        }
      ],
      "name": "add_balance",
      "outputs": [],
      "stateMutability": "payable",
      "type": "function",
      "payable": true
    },
    {
      "inputs": [],
      "name": "add_user",
      "outputs": [],
      "stateMutability": "nonpayable",
      "type": "function"
    },
    {
      "inputs": [],
      "name": "get_balance",
      "outputs": [
        {
          "internalType": "uint256",
          "name": "",
          "type": "uint256"
        }
      ],
      "stateMutability": "view",
      "type": "function",
      "constant": true
    },
    {
      "inputs": [],
      "name": "show_user",
      "outputs": [
        {
          "components": [
            {
              "internalType": "address",
              "name": "user_address",
              "type": "address"
            },
            {
              "internalType": "uint256",
              "name": "credit_score",
              "type": "uint256"
            },
            {
              "internalType": "bool",
              "name": "is_nid_verified",
              "type": "bool"
            },
            {
              "internalType": "uint256[]",
              "name": "loan_id",
              "type": "uint256[]"
            },
            {
              "internalType": "uint256",
              "name": "balance",
              "type": "uint256"
            }
          ],
          "internalType": "struct Mifi.User",
          "name": "",
          "type": "tuple"
        }
      ],
      "stateMutability": "view",
      "type": "function",
      "constant": true
    },
    {
      "inputs": [],
      "name": "show_last_vault_id",
      "outputs": [
        {
          "internalType": "uint256",
          "name": "",
          "type": "uint256"
        }
      ],
      "stateMutability": "view",
      "type": "function",
      "constant": true
    },
    {
      "inputs": [
        {
          "internalType": "uint256",
          "name": "amount",
          "type": "uint256"
        }
      ],
      "name": "withdraw_balance",
      "outputs": [],
      "stateMutability": "nonpayable",
      "type": "function"
    },
    {
      "inputs": [],
      "name": "show_contract_balance",
      "outputs": [
        {
          "internalType": "uint256",
          "name": "",
          "type": "uint256"
        }
      ],
      "stateMutability": "view",
      "type": "function",
      "constant": true
    }
  ],
  "bytecode": "0x608060405234801561001057600080fd5b50600880546001600160a01b0319163317905560006005819055600681905560075561173d806100416000396000f3fe6080604052600436106101355760003560e01c806398150147116100ab578063c1cfb99a1161006f578063c1cfb99a146104be578063cc0da80e146104e3578063cd242c03146104f6578063f1efb5c31461050b578063f4a8c8291461052b578063f4b89e301461053e57600080fd5b806398150147146103cf578063a5efc37a146103ef578063a694fc3a14610402578063a7d4238d14610422578063b734c2081461049e57600080fd5b80635f7356e8116100fd5780635f7356e8146102b5578063756d93fc146102d557806376717d5a146102f75780637cf02c2e146103705780638ddec51c1461038f57806395c2adf6146103af57600080fd5b8063197ade0a1461013a5780632565b1b81461015c5780632574b5d81461017c5780632cc9d79a1461020357806357cd792f14610223575b600080fd5b34801561014657600080fd5b5061015a610155366004611489565b610583565b005b34801561016857600080fd5b5061015a610177366004611471565b610683565b34801561018857600080fd5b506101ce610197366004611379565b60006020819052908152604090208054600182015460028301546004909301546001600160a01b0390921692909160ff9091169084565b604080516001600160a01b03909516855260208501939093529015159183019190915260608201526080015b60405180910390f35b34801561020f57600080fd5b5061015a61021e366004611471565b610743565b34801561022f57600080fd5b5061029e61023e366004611471565b6002602081905260009182526040909120805460018201549282015460038301546004840154600585015460068601546007870154600888015460099098015496986001600160a01b0380821699600160a01b90920460ff16989716968b565b6040516101fa9b9a99989796959493929190611614565b3480156102c157600080fd5b5061015a6102d0366004611471565b610894565b3480156102e157600080fd5b506102ea6108e4565b6040516101fa919061158b565b34801561030357600080fd5b5061035d610312366004611471565b600360208190526000918252604090912080546001820154600283015493830154600484015460058501546007909501546001600160a01b0390941695929492939192909160ff1687565b6040516101fa979695949392919061153f565b34801561037c57600080fd5b506006545b6040519081526020016101fa565b34801561039b57600080fd5b5061015a6103aa366004611489565b6109b2565b3480156103bb57600080fd5b5061015a6103ca3660046113a7565b610aea565b3480156103db57600080fd5b5061015a6103ea366004611471565b610bd8565b61015a6103fd3660046113c7565b610c13565b34801561040e57600080fd5b5061015a61041d366004611471565b610d57565b34801561042e57600080fd5b5061046f61043d366004611379565b600160208190526000918252604090912080549181015460028201546004830154600590930154919260ff9091169185565b6040516101fa959493929190948552602085019390935290151560408401526060830152608082015260a00190565b3480156104aa57600080fd5b5061015a6104b9366004611471565b610e6b565b3480156104ca57600080fd5b5033600090815260208190526040902060040154610381565b3480156104ef57600080fd5b5047610381565b34801561050257600080fd5b5061015a610f89565b34801561051757600080fd5b5061015a6105263660046114aa565b61102d565b61015a610539366004611471565b6111ff565b34801561054a57600080fd5b50610575610559366004611471565b6004602052600090815260409020805460029091015460ff1682565b6040516101fa92919061167d565b336000908152602081905260409020600401548211156105e15760405162461bcd60e51b8152602060048201526014602482015273496e73756666696369656e742062616c616e636560601b60448201526064015b60405180910390fd5b3360009081526020819052604090206002015460ff16151560011461063e5760405162461bcd60e51b8152602060048201526013602482015272139251081a5cc81b9bdd081d995c9a599a5959606a1b60448201526064016105d8565b6000818152600360205260408120600101805484929061065f908490611691565b90915550506000908152600360209081526040808320338452600601909152902055565b33600090815260208190526040902060048101548211156106f85760405162461bcd60e51b815260206004820152602960248201527f776974686472617720616d6f756e74206973206d6f7265207468616e20796f75604482015268722062616c616e636560b81b60648201526084016105d8565b604051339083156108fc029084906000818181858888f19350505050158015610725573d6000803e3d6000fd5b508181600401600082825461073a91906116a9565b90915550505050565b60008181526002602090815260408083208054600490910154845260039092529091206001015410156107b85760405162461bcd60e51b815260206004820152601c60248201527f4e6f7420656e6f7567682066756e6420696e20746865207661756c740000000060448201526064016105d8565b600081815260026020819052604090912001546001600160a01b03166108125760405162461bcd60e51b815260206004820152600f60248201526e1b9bc81cdd185ad95c88199bdd5b99608a1b60448201526064016105d8565b600081815260026020818152604080842060018101546001600160a01b03168552848352908420858552929091525460048201805492939192909190610859908490611691565b90915550506000828152600260209081526040808320805460049091015484526003909252822060010180549192909161073a9084906116a9565b6000818152600360205260409020546001600160a01b0316156108e157600081815260036020526040902060078101805460ff191660019081179091554260058301558101546002909101555b50565b6040805160a08101825260008082526020820181905291810182905260608082015260808101919091523360009081526020818152604091829020825160a08101845281546001600160a01b03168152600182015481840152600282015460ff16151581850152600382018054855181860281018601909652808652919492936060860193929083018282801561099a57602002820191906000526020600020905b815481526020019060010190808311610986575b50505050508152602001600482015481525050905090565b3360009081526020819052604090206004810154831115610a0c5760405162461bcd60e51b8152602060048201526014602482015273496e73756666696369656e742062616c616e636560601b60448201526064016105d8565b3360009081526020819052604090206002015460ff161515600114610a695760405162461bcd60e51b8152602060048201526013602482015272139251081a5cc81b9bdd081d995c9a599a5959606a1b60448201526064016105d8565b828160040154610a7991906116a9565b6004820155600654600090610a8f906001611691565b600680549192506000610aa1836116c0565b9091555050600090815260036020819052604090912080546001600160a01b0319163317815560018101859055600281019490945583019190915550600701805460ff19169055565b6040518060c0016040528060008152602001606481526020018215158152602001600a67ffffffffffffffff811115610b3357634e487b7160e01b600052604160045260246000fd5b604051908082528060200260200182016040528015610b5c578160200160208202803683370190505b5081526000602080830182905260409283018290523382526001808252918390208451815584820151928101929092559183015160028201805460ff1916911515919091179055606083015180519192610bbe926003850192909101906112c4565b506080820151600482015560a09091015160059091015550565b6006805460009182610be9836116c0565b9091555060009081526003602081905260409091209081019290925550600701805460ff19169055565b60408051808201825260048152633ab9b2b960e11b60208083019190915282518084018452600681526539ba30b5b2b960d11b818301529251919291610c5b91849101611506565b6040516020818303038152906040528051906020012083604051602001610c829190611506565b604051602081830303815290604052805190602001201415610cd357336000908152602081905260409020600401543490610cbe908290611691565b33600090815260208190526040902060040155505b80604051602001610ce49190611506565b6040516020818303038152906040528051906020012083604051602001610d0b9190611506565b604051602081830303815290604052805190602001201415610d525733600090815260016020526040812060058101805491923492610d4b908490611691565b9091555050505b505050565b60008181526002602090815260408083205433845260019092529091206005015411610dc55760405162461bcd60e51b815260206004820152601d60248201527f596f7520646f6e2774206861766520656e6f7567682062616c616e636500000060448201526064016105d8565b600081815260026020818152604080842092830180546001600160a01b03191633908117909155925492845260019091528220600501805491929091610e0c9084906116a9565b90915550506000908152600260208181526040808420805433865260018085529286209081559383528101546003909301805491820181558452922090910180546001600160a01b0319166001600160a01b0392909216919091179055565b33600090815260208190526040902060040154811115610ecd5760405162461bcd60e51b815260206004820152601d60248201527f796f7520646f6e2774206861766520656e6f7567682062616c616e636500000060448201526064016105d8565b80471015610f295760405162461bcd60e51b815260206004820152602360248201527f4e6f7420656e6f7567682062616c616e636520696e2074686520636f6e74726160448201526231ba1760e91b60648201526084016105d8565b6000610f366064836116a9565b604051909150339082156108fc029083906000818181858888f19350505050158015610f66573d6000803e3d6000fd5b50336000908152602081905260408120600401805484929061073a9084906116a9565b6040805160a0810182523380825260006020808401828152600185870181815287518581528085018952606088019081526080880186905295855284845296909320855181546001600160a01b0319166001600160a01b03909116178155905192810192909255935160028201805460ff1916911515919091179055905180519293919261101d9260038501920190611329565b5060808201518160040155905050565b6127108411156110915760405162461bcd60e51b815260206004820152602960248201527f6578636565646564206c6f616e206c696d69742e204f6e6c79207570746f2031604482015268303030302074616b6160b81b60648201526084016105d8565b600060075460016110a29190611691565b6007805491925060006110b4836116c0565b909155505060408051610160810182528681523360208083019182526000838501818152606085018290526080850182905260a085018c905260c0850182905260e08501899052610100850182905261012085018a905261014085018890528682526002928390529490208351815591516001830180546001600160a01b03929092166001600160a01b03198316811782559551949586959391926001600160a81b0319161790600160a01b90849081111561118057634e487b7160e01b600052602160045260246000fd5b021790555060608201516002820180546001600160a01b0319166001600160a01b039092169190911790556080820151600382015560a0820151600482015560c0820151600582015560e08201516006820155610100820151600782015561012082015160088201556101409091015160099091015550505050505050565b6000818152600260209081526040808320600881015460049091015480855260039093529220348311156112895760405162461bcd60e51b815260206004820152602b60248201527f416d6f756e74206d75737420626520657175616c206f72206d6f72652074686160448201526a6e20656163685f7465726d60a81b60648201526084016105d8565b60008481526002602052604081206007018054600192906112ab908490611691565b90915550506002810183905560c8600490910155505050565b828054828255906000526020600020908101928215611319579160200282015b8281111561131957825182546001600160a01b0319166001600160a01b039091161782556020909201916001909101906112e4565b50611325929150611364565b5090565b828054828255906000526020600020908101928215611319579160200282015b82811115611319578251825591602001919060010190611349565b5b808211156113255760008155600101611365565b60006020828403121561138a578081fd5b81356001600160a01b03811681146113a0578182fd5b9392505050565b6000602082840312156113b8578081fd5b813580151581146113a0578182fd5b6000602082840312156113d8578081fd5b813567ffffffffffffffff808211156113ef578283fd5b818401915084601f830112611402578283fd5b813581811115611414576114146116f1565b604051601f8201601f19908116603f0116810190838211818310171561143c5761143c6116f1565b81604052828152876020848701011115611454578586fd5b826020860160208301379182016020019490945295945050505050565b600060208284031215611482578081fd5b5035919050565b6000806040838503121561149b578081fd5b50508035926020909101359150565b600080600080600060a086880312156114c1578081fd5b505083359560208501359550604085013594606081013594506080013592509050565b6003811061150257634e487b7160e01b600052602160045260246000fd5b9052565b60008251815b81811015611526576020818601810151858301520161150c565b818111156115345782828501525b509190910192915050565b6001600160a01b03881681526020810187905260408101869052606081018590526080810184905260a0810183905260e0810161157f60c08301846114e4565b98975050505050505050565b602080825282516001600160a01b03168282015282810151604080840191909152830151151560608084019190915283015160a06080840152805160c0840181905260009291820190839060e08601905b808310156115fc57835182529284019260019290920191908401906115dc565b50608087015160a08701528094505050505092915050565b8b81526001600160a01b038b8116602083015261016082019061163a604084018d6114e4565b999099166060820152608081019790975260a087019590955260c086019390935260e0850191909152610100840152610120830152610140909101529392505050565b828152604081016113a060208301846114e4565b600082198211156116a4576116a46116db565b500190565b6000828210156116bb576116bb6116db565b500390565b60006000198214156116d4576116d46116db565b5060010190565b634e487b7160e01b600052601160045260246000fd5b634e487b7160e01b600052604160045260246000fdfea2646970667358221220c2fb97bf64f5717d0c8e6d8b59c8872ef8c8dd31722a1b897e3e4b94f478a80764736f6c63430008040033",
  "immutableReferences": {},
  "source": "// SPDX-License-Identifier: MIT\r\npragma solidity ^0.8.0;\r\n\r\n// import \"@openzeppelin/contracts/token/ERC20/IERC20.sol\";\r\n// import \"@openzeppelin/contracts/access/Ownable.sol\";\r\n// import \"hashs/SHA3.sol\";\r\n\r\ncontract Mifi {\r\n    // IERC20 public stablecoin;\r\n\r\n    struct User {\r\n        address user_address;\r\n        uint256 credit_score;\r\n        bool is_nid_verified;\r\n        uint256[] loan_id;\r\n        uint256 balance;\r\n    }\r\n\r\n    struct Loan {\r\n        uint256 amount;\r\n        address borrower;\r\n        Status status;\r\n        address staker;\r\n        uint256 start_date;\r\n        uint256 vault_id;\r\n        uint256 borrowing_group_id;\r\n        uint256 no_of_installments;\r\n        uint256 no_of_installments_done;\r\n        uint256 each_installment_amount;\r\n        uint256 each_term;\r\n    }\r\n\r\n    struct Staker {\r\n        uint256 total_amount_staked;\r\n        uint256 reputation_score;\r\n        bool is_nid_verified;\r\n        address[] referred_borrower;\r\n        uint256 reward;\r\n        uint256 balance;\r\n    }\r\n\r\n    struct Vault {\r\n        address vault_owner;\r\n        uint256 total_supply;\r\n        uint256 remaining_supply;\r\n        uint256 interest_rate;\r\n        uint256 interest_earned;\r\n        uint256 creation_date;\r\n        mapping(address => uint256) member_contribution;\r\n        Status status;\r\n    }\r\n\r\n    struct Borrowing_group {\r\n        uint256 total_funded;\r\n        mapping(address => mapping(uint256 => uint256)) member_loanId_votes;\r\n        Status status;\r\n    }\r\n\r\n    enum Status {\r\n        pending,\r\n        approved,\r\n        cancelled\r\n    }\r\n\r\n    mapping(address => User) public address_user;\r\n    mapping(address => Staker) public address_staker;\r\n    mapping(uint256 => Loan) public loanId_loan;\r\n    mapping(uint256 => Vault) public vaultId_vault;\r\n    mapping(uint256 => Borrowing_group) public groupId_borrowingGroup;\r\n\r\n    uint256 private last_borrowing_group_id;\r\n    uint256 private last_vault_id;\r\n    uint256 private last_loan_id;\r\n    address owner;\r\n\r\n    constructor() {\r\n        //IERC20 _stablecoin\r\n        // stablecoin = _stablecoin;\r\n        owner = payable(msg.sender);\r\n        last_borrowing_group_id = 0;\r\n        last_vault_id = 0;\r\n        last_loan_id = 0;\r\n    }\r\n\r\n    function become_staker(bool _is_nid_verified) external {\r\n        address_staker[msg.sender] = Staker({\r\n            total_amount_staked: 0,\r\n            reputation_score: 100,\r\n            is_nid_verified: _is_nid_verified,\r\n            balance: 0,\r\n            reward: 0,\r\n            referred_borrower: new address[](10)\r\n        });\r\n    }\r\n\r\n    function stake(uint256 loan_id) external {\r\n        require(\r\n            address_staker[msg.sender].balance > loanId_loan[loan_id].amount,\r\n            \"You don't have enough balance\"\r\n        );\r\n\r\n        loanId_loan[loan_id].staker = msg.sender;\r\n        address_staker[msg.sender].balance -= loanId_loan[loan_id].amount;\r\n        address_staker[msg.sender].total_amount_staked = loanId_loan[loan_id]\r\n            .amount;\r\n        address_staker[msg.sender].referred_borrower.push(\r\n            loanId_loan[loan_id].borrower\r\n        );\r\n\r\n        //emit en event to the PM.\r\n    }\r\n\r\n    function create_individual_vault(\r\n        uint256 total_amount,\r\n        uint256 interest_rate\r\n    ) external {\r\n        User storage user = address_user[msg.sender];\r\n        require(user.balance >= total_amount, \"Insufficient balance\");\r\n        require(\r\n            address_user[msg.sender].is_nid_verified == true,\r\n            \"NID is not verified\"\r\n        );\r\n\r\n        user.balance = user.balance - total_amount;\r\n\r\n        uint256 vault_id = last_vault_id + 1;\r\n        last_vault_id++;\r\n        // vaultId_vault[vault_id] = Vault({});\r\n        Vault storage vault = vaultId_vault[vault_id];\r\n        vault.vault_owner = msg.sender;\r\n        vault.total_supply = total_amount;\r\n        vault.remaining_supply = total_amount; //remaining balance\r\n        vault.interest_rate = interest_rate;\r\n        vault.status = Status.pending;\r\n        // emit VaultCreated(vaultId, msg.sender, interestRate, isGroupVault);\r\n    }\r\n\r\n    function initiate_group_vault(uint256 interest_rate) external {\r\n        // require(\r\n        //     msg.sender == pm_address;\r\n        //     \"only pm can initiate a group vault\"\r\n        // ); //\r\n        uint256 vault_id = last_vault_id++;\r\n        Vault storage vault = vaultId_vault[vault_id];\r\n        vault.interest_rate = interest_rate;\r\n        vault.status = Status.pending;\r\n    }\r\n\r\n    function join_group_vault(uint256 contribution, uint256 vault_id) external {\r\n        require(\r\n            address_user[msg.sender].balance >= contribution,\r\n            \"Insufficient balance\"\r\n        );\r\n        require(\r\n            address_user[msg.sender].is_nid_verified == true,\r\n            \"NID is not verified\"\r\n        );\r\n\r\n        vaultId_vault[vault_id].total_supply += contribution;\r\n        vaultId_vault[vault_id].member_contribution[msg.sender] = contribution;\r\n    }\r\n\r\n    function approve_vault(uint256 vault_id) external {\r\n        //for individual vault\r\n        if (vaultId_vault[vault_id].vault_owner != address(0)) {\r\n            vaultId_vault[vault_id].status = Status.approved;\r\n            vaultId_vault[vault_id].creation_date = block.timestamp;\r\n            vaultId_vault[vault_id].remaining_supply = vaultId_vault[vault_id]\r\n                .total_supply;\r\n        }\r\n    }\r\n\r\n    function individual_borrow(\r\n        uint256 _vault_id,\r\n        uint256 _amount,\r\n        uint256 _each_installment_amount,\r\n        uint256 _no_of_installments,\r\n        uint256 _each_term\r\n    ) external {\r\n        require(_amount <= 10000, \"exceeded loan limit. Only upto 10000 taka\");\r\n        uint256 loan_id = last_loan_id + 1;\r\n        last_loan_id++;\r\n\r\n        Loan memory loan = Loan({\r\n            borrower: msg.sender,\r\n            amount: _amount,\r\n            status: Status.pending,\r\n            vault_id: _vault_id,\r\n            no_of_installments: _no_of_installments,\r\n            each_installment_amount: _each_installment_amount,\r\n            each_term: _each_term,\r\n            staker: address(0), // Add a default value or a suitable value for the staker field\r\n            start_date: 0, // Add a default value or a suitable value for the start_date field\r\n            borrowing_group_id: 0, // Add a default value or a suitable value for the borrowing_group_id field\r\n            no_of_installments_done: 0 // Add a default value for the no_of_installments_done field\r\n            // interest_rate: 0 // Add a default value or a suitable value for the interest_rate field\r\n        });\r\n        loanId_loan[loan_id] = loan;\r\n    }\r\n\r\n    function approve_loan(uint256 _loan_id) external {\r\n        require(\r\n            vaultId_vault[loanId_loan[_loan_id].vault_id].total_supply >=\r\n                loanId_loan[_loan_id].amount,\r\n            \"Not enough fund in the vault\"\r\n        );\r\n        require(loanId_loan[_loan_id].staker != address(0), \"no staker found\");\r\n\r\n        User storage user = address_user[loanId_loan[_loan_id].borrower];\r\n        user.balance += loanId_loan[\r\n            _loan_id\r\n        ].amount;\r\n        vaultId_vault[loanId_loan[_loan_id].vault_id]\r\n            .total_supply -= loanId_loan[_loan_id].amount;\r\n    }\r\n\r\n    function cashout_loan(uint256 _amount) external {\r\n        // require(msg.sender == owner, \"Only the owner can transfer money from contract.\");\r\n        require(\r\n            address_user[msg.sender].balance >= _amount,\r\n            \"you don't have enough balance\"\r\n        );\r\n        require(\r\n            address(this).balance >= _amount,\r\n            \"Not enough balance in the contract.\"\r\n        );\r\n        uint256 cashout_amount = _amount - calculate_fees(_amount);\r\n        payable(msg.sender).transfer(cashout_amount);\r\n        address_user[msg.sender].balance -= _amount;\r\n    }\r\n\r\n    function individual_installment_repay_wtih_interest(uint256 _loan_id)\r\n        external\r\n        payable\r\n    {\r\n        uint256 installment_amount = loanId_loan[_loan_id]\r\n            .each_installment_amount;\r\n        uint256 vault_id = loanId_loan[_loan_id].vault_id;\r\n        Vault storage vault = vaultId_vault[vault_id];\r\n        require(\r\n            msg.value >= installment_amount,\r\n            \"Amount must be equal or more than each_term\"\r\n        );\r\n        loanId_loan[_loan_id].no_of_installments_done += 1;\r\n        // add the interest later. will deal with fixed point number.\r\n        vault.remaining_supply = installment_amount;\r\n        vault.interest_earned = calculate_interest();\r\n        //calculate credit score for borrower, lender, staker\r\n        // give staker the reward\r\n    }\r\n\r\n    function calculate_fees(uint256 _amount) internal pure returns (uint256) {\r\n        return 100;\r\n    }\r\n\r\n    function calculate_interest() internal pure returns (uint256) {\r\n        return 200;\r\n    }\r\n\r\nfunction add_balance(string memory user_type) external payable {\r\n    string memory _user = \"user\";\r\n    string memory _staker = \"staker\";\r\n    if (keccak256(abi.encodePacked(user_type)) == keccak256(abi.encodePacked(_user))) {\r\n        uint256 amount = msg.value;\r\n        address_user[msg.sender].balance =\r\n            address_user[msg.sender].balance +\r\n            amount;\r\n    }\r\n    if(keccak256(abi.encodePacked(user_type)) == keccak256(abi.encodePacked(_staker))){\r\n        Staker storage staker = address_staker[msg.sender];\r\n        staker.balance += msg.value;\r\n    }\r\n}\r\n\r\n    function add_user() external {\r\n        address_user[msg.sender] = User({\r\n            user_address: msg.sender,\r\n            is_nid_verified: true,\r\n            loan_id: new uint256[](0),\r\n            balance: 0,\r\n            credit_score: 0\r\n        });\r\n    }\r\n\r\n    function get_balance() external view returns (uint256) {\r\n        return address_user[msg.sender].balance;\r\n    }\r\n\r\n    function show_user() external view returns (User memory) {\r\n        return address_user[msg.sender];\r\n    }\r\n\r\n    function show_last_vault_id() external view returns (uint256) {\r\n        return last_vault_id;\r\n    }\r\n\r\n    function withdraw_balance(uint256 amount) external {\r\n        User storage user = address_user[msg.sender];\r\n        require(\r\n            amount <= user.balance,\r\n            \"withdraw amount is more than your balance\"\r\n        );\r\n        payable(msg.sender).transfer(amount);\r\n        user.balance -= amount;\r\n    }\r\n\r\n    function show_contract_balance() external view returns (uint256) {\r\n        return address(this).balance;\r\n    }\r\n}",
  "sourcePath": "D:\\fixing issue\\Microfinance_dapp\\truffle\\contracts\\mifi.sol",
  "compiler": {
    "name": "solc",
    "version": "0.8.4+commit.c7e474f2.Emscripten.clang"
  },
  "schemaVersion": "3.4.13",
  "updatedAt": "2023-05-16T14:15:10.539Z",
  "networkType": "ethereum",
  "devdoc": {
    "kind": "dev",
    "methods": {},
    "version": 1
  },
  "userdoc": {
    "kind": "user",
    "methods": {},
    "version": 1
  }
}