{
  "contractName": "Mifi",
  "abi": [
    {
      "inputs": [],
      "stateMutability": "nonpayable",
      "type": "constructor"
    },
    {
      "inputs": [
        {
          "internalType": "address",
          "name": "",
          "type": "address"
        }
      ],
      "name": "address_staker",
      "outputs": [
        {
          "internalType": "uint256",
          "name": "total_amount_staked",
          "type": "uint256"
        },
        {
          "internalType": "uint256",
          "name": "reputation_score",
          "type": "uint256"
        },
        {
          "internalType": "bool",
          "name": "is_nid_verified",
          "type": "bool"
        },
        {
          "internalType": "uint256",
          "name": "reward",
          "type": "uint256"
        },
        {
          "internalType": "uint256",
          "name": "balance",
          "type": "uint256"
        }
      ],
      "stateMutability": "view",
      "type": "function",
      "constant": true
    },
    {
      "inputs": [
        {
          "internalType": "address",
          "name": "",
          "type": "address"
        }
      ],
      "name": "address_user",
      "outputs": [
        {
          "internalType": "address",
          "name": "user_address",
          "type": "address"
        },
        {
          "internalType": "uint256",
          "name": "credit_score",
          "type": "uint256"
        },
        {
          "internalType": "bool",
          "name": "is_nid_verified",
          "type": "bool"
        },
        {
          "internalType": "uint256",
          "name": "balance",
          "type": "uint256"
        }
      ],
      "stateMutability": "view",
      "type": "function",
      "constant": true
    },
    {
      "inputs": [
        {
          "internalType": "uint256",
          "name": "",
          "type": "uint256"
        }
      ],
      "name": "groupId_borrowingGroup",
      "outputs": [
        {
          "internalType": "uint256",
          "name": "total_funded",
          "type": "uint256"
        },
        {
          "internalType": "enum Mifi.Status",
          "name": "status",
          "type": "uint8"
        }
      ],
      "stateMutability": "view",
      "type": "function",
      "constant": true
    },
    {
      "inputs": [
        {
          "internalType": "uint256",
          "name": "",
          "type": "uint256"
        },
        {
          "internalType": "uint256",
          "name": "",
          "type": "uint256"
        }
      ],
      "name": "groupVaultId_contribution",
      "outputs": [
        {
          "internalType": "uint256",
          "name": "vault_id",
          "type": "uint256"
        },
        {
          "internalType": "address",
          "name": "member",
          "type": "address"
        },
        {
          "internalType": "uint256",
          "name": "contribution",
          "type": "uint256"
        }
      ],
      "stateMutability": "view",
      "type": "function",
      "constant": true
    },
    {
      "inputs": [
        {
          "internalType": "uint256",
          "name": "",
          "type": "uint256"
        }
      ],
      "name": "groupVaultId_vault",
      "outputs": [
        {
          "internalType": "address",
          "name": "protocol_manager",
          "type": "address"
        },
        {
          "internalType": "uint256",
          "name": "vault_id",
          "type": "uint256"
        },
        {
          "internalType": "uint256",
          "name": "total_supply",
          "type": "uint256"
        },
        {
          "internalType": "uint256",
          "name": "remaining_supply",
          "type": "uint256"
        },
        {
          "internalType": "uint256",
          "name": "interest_rate",
          "type": "uint256"
        },
        {
          "internalType": "uint256",
          "name": "interest_earned",
          "type": "uint256"
        },
        {
          "internalType": "uint256",
          "name": "creation_date",
          "type": "uint256"
        },
        {
          "internalType": "enum Mifi.Status",
          "name": "status",
          "type": "uint8"
        }
      ],
      "stateMutability": "view",
      "type": "function",
      "constant": true
    },
    {
      "inputs": [
        {
          "internalType": "uint256",
          "name": "",
          "type": "uint256"
        }
      ],
      "name": "loanId_loan",
      "outputs": [
        {
          "internalType": "uint256",
          "name": "amount",
          "type": "uint256"
        },
        {
          "internalType": "address",
          "name": "borrower",
          "type": "address"
        },
        {
          "internalType": "enum Mifi.Status",
          "name": "status",
          "type": "uint8"
        },
        {
          "internalType": "address",
          "name": "staker",
          "type": "address"
        },
        {
          "internalType": "uint256",
          "name": "start_date",
          "type": "uint256"
        },
        {
          "internalType": "uint256",
          "name": "vault_id",
          "type": "uint256"
        },
        {
          "internalType": "string",
          "name": "vault_type",
          "type": "string"
        },
        {
          "internalType": "uint256",
          "name": "borrowing_group_id",
          "type": "uint256"
        },
        {
          "internalType": "uint256",
          "name": "no_of_installments",
          "type": "uint256"
        },
        {
          "internalType": "uint256",
          "name": "no_of_installments_done",
          "type": "uint256"
        },
        {
          "internalType": "uint256",
          "name": "each_installment_amount",
          "type": "uint256"
        },
        {
          "internalType": "uint256",
          "name": "each_term",
          "type": "uint256"
        },
        {
          "internalType": "uint256",
          "name": "next_term_due_date",
          "type": "uint256"
        }
      ],
      "stateMutability": "view",
      "type": "function",
      "constant": true
    },
    {
      "inputs": [
        {
          "internalType": "uint256",
          "name": "",
          "type": "uint256"
        }
      ],
      "name": "vaultId_vault",
      "outputs": [
        {
          "internalType": "address",
          "name": "vault_owner",
          "type": "address"
        },
        {
          "internalType": "uint256",
          "name": "vault_id",
          "type": "uint256"
        },
        {
          "internalType": "uint256",
          "name": "total_supply",
          "type": "uint256"
        },
        {
          "internalType": "uint256",
          "name": "remaining_supply",
          "type": "uint256"
        },
        {
          "internalType": "uint256",
          "name": "interest_rate",
          "type": "uint256"
        },
        {
          "internalType": "uint256",
          "name": "interest_earned",
          "type": "uint256"
        },
        {
          "internalType": "uint256",
          "name": "creation_date",
          "type": "uint256"
        },
        {
          "internalType": "enum Mifi.Status",
          "name": "status",
          "type": "uint8"
        }
      ],
      "stateMutability": "view",
      "type": "function",
      "constant": true
    },
    {
      "inputs": [
        {
          "internalType": "bool",
          "name": "_is_nid_verified",
          "type": "bool"
        }
      ],
      "name": "become_staker",
      "outputs": [],
      "stateMutability": "nonpayable",
      "type": "function"
    },
    {
      "inputs": [
        {
          "internalType": "uint256",
          "name": "loan_id",
          "type": "uint256"
        }
      ],
      "name": "stake",
      "outputs": [],
      "stateMutability": "nonpayable",
      "type": "function"
    },
    {
      "inputs": [
        {
          "internalType": "uint256",
          "name": "total_amount",
          "type": "uint256"
        },
        {
          "internalType": "uint256",
          "name": "interest_rate",
          "type": "uint256"
        }
      ],
      "name": "create_individual_vault",
      "outputs": [],
      "stateMutability": "nonpayable",
      "type": "function"
    },
    {
      "inputs": [
        {
          "internalType": "uint256",
          "name": "interest_rate",
          "type": "uint256"
        }
      ],
      "name": "initiate_group_vault",
      "outputs": [],
      "stateMutability": "nonpayable",
      "type": "function"
    },
    {
      "inputs": [
        {
          "internalType": "uint256",
          "name": "_contribution",
          "type": "uint256"
        },
        {
          "internalType": "uint256",
          "name": "_vault_id",
          "type": "uint256"
        }
      ],
      "name": "join_group_vault",
      "outputs": [],
      "stateMutability": "nonpayable",
      "type": "function"
    },
    {
      "inputs": [
        {
          "internalType": "uint256",
          "name": "vault_id",
          "type": "uint256"
        },
        {
          "internalType": "string",
          "name": "vault_type",
          "type": "string"
        }
      ],
      "name": "approve_vault",
      "outputs": [],
      "stateMutability": "nonpayable",
      "type": "function"
    },
    {
      "inputs": [
        {
          "internalType": "uint256",
          "name": "_vault_id",
          "type": "uint256"
        },
        {
          "internalType": "string",
          "name": "_vault_type",
          "type": "string"
        },
        {
          "internalType": "uint256",
          "name": "_amount",
          "type": "uint256"
        },
        {
          "internalType": "uint256",
          "name": "_each_installment_amount",
          "type": "uint256"
        },
        {
          "internalType": "uint256",
          "name": "_no_of_installments",
          "type": "uint256"
        },
        {
          "internalType": "uint256",
          "name": "_each_term",
          "type": "uint256"
        }
      ],
      "name": "individual_borrow",
      "outputs": [],
      "stateMutability": "nonpayable",
      "type": "function"
    },
    {
      "inputs": [
        {
          "internalType": "uint256",
          "name": "_loan_id",
          "type": "uint256"
        },
        {
          "internalType": "string",
          "name": "vault_type",
          "type": "string"
        }
      ],
      "name": "approve_loan",
      "outputs": [],
      "stateMutability": "nonpayable",
      "type": "function"
    },
    {
      "inputs": [
        {
          "internalType": "uint256",
          "name": "_amount",
          "type": "uint256"
        }
      ],
      "name": "cashout_balance",
      "outputs": [],
      "stateMutability": "nonpayable",
      "type": "function"
    },
    {
      "inputs": [
        {
          "internalType": "uint256",
          "name": "_loan_id",
          "type": "uint256"
        },
        {
          "internalType": "string",
          "name": "_vault_type",
          "type": "string"
        }
      ],
      "name": "individual_installment_repay_wtih_interest",
      "outputs": [],
      "stateMutability": "payable",
      "type": "function",
      "payable": true
    },
    {
      "inputs": [
        {
          "internalType": "address",
          "name": "user_address",
          "type": "address"
        }
      ],
      "name": "update_credit_score",
      "outputs": [
        {
          "internalType": "uint256",
          "name": "",
          "type": "uint256"
        }
      ],
      "stateMutability": "nonpayable",
      "type": "function"
    },
    {
      "inputs": [
        {
          "internalType": "string",
          "name": "user_type",
          "type": "string"
        }
      ],
      "name": "add_balance",
      "outputs": [],
      "stateMutability": "payable",
      "type": "function",
      "payable": true
    },
    {
      "inputs": [],
      "name": "add_user",
      "outputs": [],
      "stateMutability": "nonpayable",
      "type": "function"
    },
    {
      "inputs": [],
      "name": "get_balance",
      "outputs": [
        {
          "internalType": "uint256",
          "name": "",
          "type": "uint256"
        }
      ],
      "stateMutability": "view",
      "type": "function",
      "constant": true
    },
    {
      "inputs": [],
      "name": "show_user",
      "outputs": [
        {
          "components": [
            {
              "internalType": "address",
              "name": "user_address",
              "type": "address"
            },
            {
              "internalType": "uint256",
              "name": "credit_score",
              "type": "uint256"
            },
            {
              "internalType": "bool",
              "name": "is_nid_verified",
              "type": "bool"
            },
            {
              "internalType": "uint256[]",
              "name": "loan_id",
              "type": "uint256[]"
            },
            {
              "internalType": "uint256",
              "name": "balance",
              "type": "uint256"
            }
          ],
          "internalType": "struct Mifi.User",
          "name": "",
          "type": "tuple"
        }
      ],
      "stateMutability": "view",
      "type": "function",
      "constant": true
    },
    {
      "inputs": [],
      "name": "show_last_vault_id",
      "outputs": [
        {
          "internalType": "uint256",
          "name": "",
          "type": "uint256"
        }
      ],
      "stateMutability": "view",
      "type": "function",
      "constant": true
    },
    {
      "inputs": [
        {
          "internalType": "uint256",
          "name": "amount",
          "type": "uint256"
        }
      ],
      "name": "withdraw_balance",
      "outputs": [],
      "stateMutability": "nonpayable",
      "type": "function"
    },
    {
      "inputs": [],
      "name": "show_contract_balance",
      "outputs": [
        {
          "internalType": "uint256",
          "name": "",
          "type": "uint256"
        }
      ],
      "stateMutability": "view",
      "type": "function",
      "constant": true
    },
    {
      "inputs": [],
      "name": "show_all_individual_vault",
      "outputs": [
        {
          "components": [
            {
              "internalType": "address",
              "name": "vault_owner",
              "type": "address"
            },
            {
              "internalType": "uint256",
              "name": "vault_id",
              "type": "uint256"
            },
            {
              "internalType": "uint256",
              "name": "total_supply",
              "type": "uint256"
            },
            {
              "internalType": "uint256",
              "name": "remaining_supply",
              "type": "uint256"
            },
            {
              "internalType": "uint256",
              "name": "interest_rate",
              "type": "uint256"
            },
            {
              "internalType": "uint256",
              "name": "interest_earned",
              "type": "uint256"
            },
            {
              "internalType": "uint256",
              "name": "creation_date",
              "type": "uint256"
            },
            {
              "internalType": "enum Mifi.Status",
              "name": "status",
              "type": "uint8"
            }
          ],
          "internalType": "struct Mifi.Vault[]",
          "name": "",
          "type": "tuple[]"
        }
      ],
      "stateMutability": "view",
      "type": "function",
      "constant": true
    },
    {
      "inputs": [],
      "name": "show_all_group_vault",
      "outputs": [
        {
          "components": [
            {
              "internalType": "address",
              "name": "protocol_manager",
              "type": "address"
            },
            {
              "internalType": "uint256",
              "name": "vault_id",
              "type": "uint256"
            },
            {
              "internalType": "uint256",
              "name": "total_supply",
              "type": "uint256"
            },
            {
              "internalType": "uint256",
              "name": "remaining_supply",
              "type": "uint256"
            },
            {
              "internalType": "uint256",
              "name": "interest_rate",
              "type": "uint256"
            },
            {
              "internalType": "uint256",
              "name": "interest_earned",
              "type": "uint256"
            },
            {
              "internalType": "uint256",
              "name": "creation_date",
              "type": "uint256"
            },
            {
              "internalType": "enum Mifi.Status",
              "name": "status",
              "type": "uint8"
            }
          ],
          "internalType": "struct Mifi.Group_Vault[]",
          "name": "",
          "type": "tuple[]"
        }
      ],
      "stateMutability": "view",
      "type": "function",
      "constant": true
    },
    {
      "inputs": [
        {
          "internalType": "uint256",
          "name": "_vault_id",
          "type": "uint256"
        }
      ],
      "name": "show_contribution",
      "outputs": [
        {
          "components": [
            {
              "internalType": "uint256",
              "name": "vault_id",
              "type": "uint256"
            },
            {
              "internalType": "address",
              "name": "member",
              "type": "address"
            },
            {
              "internalType": "uint256",
              "name": "contribution",
              "type": "uint256"
            }
          ],
          "internalType": "struct Mifi.Contribution[]",
          "name": "",
          "type": "tuple[]"
        }
      ],
      "stateMutability": "view",
      "type": "function",
      "constant": true
    },
    {
      "inputs": [],
      "name": "show_all_loan",
      "outputs": [
        {
          "components": [
            {
              "internalType": "uint256",
              "name": "amount",
              "type": "uint256"
            },
            {
              "internalType": "address",
              "name": "borrower",
              "type": "address"
            },
            {
              "internalType": "enum Mifi.Status",
              "name": "status",
              "type": "uint8"
            },
            {
              "internalType": "address",
              "name": "staker",
              "type": "address"
            },
            {
              "internalType": "uint256",
              "name": "start_date",
              "type": "uint256"
            },
            {
              "internalType": "uint256",
              "name": "vault_id",
              "type": "uint256"
            },
            {
              "internalType": "string",
              "name": "vault_type",
              "type": "string"
            },
            {
              "internalType": "uint256",
              "name": "borrowing_group_id",
              "type": "uint256"
            },
            {
              "internalType": "uint256",
              "name": "no_of_installments",
              "type": "uint256"
            },
            {
              "internalType": "uint256",
              "name": "no_of_installments_done",
              "type": "uint256"
            },
            {
              "internalType": "uint256",
              "name": "each_installment_amount",
              "type": "uint256"
            },
            {
              "internalType": "uint256",
              "name": "each_term",
              "type": "uint256"
            },
            {
              "internalType": "uint256",
              "name": "next_term_due_date",
              "type": "uint256"
            }
          ],
          "internalType": "struct Mifi.Loan[]",
          "name": "",
          "type": "tuple[]"
        }
      ],
      "stateMutability": "view",
      "type": "function",
      "constant": true
    },
    {
      "inputs": [],
      "name": "time",
      "outputs": [
        {
          "internalType": "uint256",
          "name": "",
          "type": "uint256"
        }
      ],
      "stateMutability": "view",
      "type": "function",
      "constant": true
    }
  ],
  "bytecode": "0x608060405234801561001057600080fd5b50600b80546001600160a01b031916331790556000600781905560088190556009819055600a55613051806100466000396000f3fe6080604052600436106101cd5760003560e01c80638ddec51c116100f7578063ad113b6f11610095578063cd242c0311610064578063cd242c03146106ac578063d17e8860146106c1578063f4b89e30146106e1578063f88fe1111461072657600080fd5b8063ad113b6f14610641578063af95b24914610661578063c1cfb99a14610674578063cc0da80e1461069957600080fd5b8063a5efc37a116100d1578063a5efc37a1461056f578063a694fc3a14610582578063a7d4238d146105a2578063a94482a81461061f57600080fd5b80638ddec51c1461050f57806395c2adf61461052f578063981501471461054f57600080fd5b806356e9bf061161016f57806364bb03981161013e57806364bb03981461043d578063756d93fc1461046a57806376717d5a1461048c5780637cf02c2e146104fa57600080fd5b806356e9bf061461037f57806357cd792f1461039f578063600885f0146103d8578063643d49731461041b57600080fd5b8063197ade0a116101ab578063197ade0a1461029b5780632565b1b8146102bd5780632574b5d8146102dd57806351d020071461035f57600080fd5b8063030c8368146101d257806305a05d47146101fd57806316ada5471461027e575b600080fd5b3480156101de57600080fd5b506101e7610746565b6040516101f49190612ba2565b60405180910390f35b34801561020957600080fd5b5061026a6102183660046128f2565b6002602081905260009182526040909120805460018201549282015460038301546004840154600585015460068601546007909601546001600160a01b03909516969593949293919290919060ff1688565b6040516101f4989796959493929190612a9c565b34801561028a57600080fd5b50425b6040519081526020016101f4565b3480156102a757600080fd5b506102bb6102b63660046129b7565b6109f7565b005b3480156102c957600080fd5b506102bb6102d83660046128f2565b610b6f565b3480156102e957600080fd5b5061032f6102f8366004612869565b60006020819052908152604090208054600182015460028301546004909301546001600160a01b0390921692909160ff9091169084565b604080516001600160a01b03909516855260208501939093529015159183019190915260608201526080016101f4565b34801561036b57600080fd5b5061028d61037a366004612869565b610c2f565b34801561038b57600080fd5b506102bb61039a36600461290a565b610df5565b3480156103ab57600080fd5b506103bf6103ba3660046128f2565b610f7d565b6040516101f49d9c9b9a99989796959493929190612d76565b3480156103e457600080fd5b506103f86103f33660046129b7565b61107b565b604080519384526001600160a01b039092166020840152908201526060016101f4565b34801561042757600080fd5b506104306110c7565b6040516101f49190612caa565b34801561044957600080fd5b5061045d6104583660046128f2565b61123f565b6040516101f49190612af1565b34801561047657600080fd5b5061047f6112d4565b6040516101f49190612ced565b34801561049857600080fd5b5061026a6104a73660046128f2565b6001602081905260009182526040909120805491810154600282015460038301546004840154600585015460068601546007909601546001600160a01b0390971696949593949293919290919060ff1688565b34801561050657600080fd5b5060085461028d565b34801561051b57600080fd5b506102bb61052a3660046129b7565b6113a2565b34801561053b57600080fd5b506102bb61054a366004612897565b6114e0565b34801561055b57600080fd5b506102bb61056a3660046128f2565b6115c9565b6102bb61057d3660046128b7565b61162b565b34801561058e57600080fd5b506102bb61059d3660046128f2565b611765565b3480156105ae57600080fd5b506105f06105bd366004612869565b600360205260009081526040902080546001820154600283015460048401546005909401549293919260ff909116919085565b6040516101f4959493929190948552602085019390935290151560408401526060830152608082015260a00190565b34801561062b57600080fd5b506106346118fa565b6040516101f49190612b53565b34801561064d57600080fd5b506102bb61065c36600461290a565b611a6e565b6102bb61066f36600461290a565b611e5c565b34801561068057600080fd5b503360009081526020819052604090206004015461028d565b3480156106a557600080fd5b504761028d565b3480156106b857600080fd5b506102bb612118565b3480156106cd57600080fd5b506102bb6106dc36600461294f565b6121bc565b3480156106ed57600080fd5b506107186106fc3660046128f2565b6005602052600090815260409020805460029091015460ff1682565b6040516101f4929190612e00565b34801561073257600080fd5b506102bb6107413660046128f2565b6123c4565b600a5460609060008167ffffffffffffffff81111561077557634e487b7160e01b600052604160045260246000fd5b60405190808252806020026020018201604052801561081a57816020015b610807604080516101a0810182526000808252602082018190529091820190815260200160006001600160a01b031681526020016000815260200160008152602001606081526020016000815260200160008152602001600081526020016000815260200160008152602001600081525090565b8152602001906001900390816107935790505b50905060015b8281116109f05760008181526004602090815260409182902082516101a0810184528154815260018201546001600160a01b0381169382019390935292909190830190600160a01b900460ff16600281111561088c57634e487b7160e01b600052602160045260246000fd5b60028111156108ab57634e487b7160e01b600052602160045260246000fd5b815260028201546001600160a01b0316602082015260038201546040820152600482015460608201526005820180546080909201916108e990612f99565b80601f016020809104026020016040519081016040528092919081815260200182805461091590612f99565b80156109625780601f1061093757610100808354040283529160200191610962565b820191906000526020600020905b81548152906001019060200180831161094557829003601f168201915b505050918352505060068201546020820152600782015460408201526008820154606082015260098201546080820152600a82015460a0820152600b9091015460c090910152826109b4600184612f56565b815181106109d257634e487b7160e01b600052603260045260246000fd5b602002602001018190525080806109e890612fd4565b915050610820565b5092915050565b33600090815260208190526040902060040154821115610a555760405162461bcd60e51b8152602060048201526014602482015273496e73756666696369656e742062616c616e636560601b60448201526064015b60405180910390fd5b3360009081526020819052604090206002015460ff161515600114610ab25760405162461bcd60e51b8152602060048201526013602482015272139251081a5cc81b9bdd081d995c9a599a5959606a1b6044820152606401610a4c565b33600090815260208181526040808320848452600292839052908320909101805491928592610ae2908490612e14565b90915550506004810154610af7908490612f56565b600491909101556040805160608101825282815233602080830191825282840195865260009485526006815292842080546001808201835591865293909420915160039093029091019182555191810180546001600160a01b0319166001600160a01b03909316929092179091559051600290910155565b3360009081526020819052604090206004810154821115610be45760405162461bcd60e51b815260206004820152602960248201527f776974686472617720616d6f756e74206973206d6f7265207468616e20796f75604482015268722062616c616e636560b81b6064820152608401610a4c565b604051339083156108fc029084906000818181858888f19350505050158015610c11573d6000803e3d6000fd5b5081816004016000828254610c269190612f56565b90915550505050565b6001600160a01b03811660009081526020819052604081206003810154828080808080805b87811015610d45576000600460008b6003018481548110610c8557634e487b7160e01b600052603260045260246000fd5b90600052602060002001548152602001908152602001600020905080600901548160080154610cb49190612f37565b610cbe9089612e14565b97506201518081600a0154610cd39190612e2c565b8160080154610ce29190612f37565b610cec9087612e14565b9550806003015442610cfe9190612f56565b935080600a0154600014610d2d57600a810154610d1b9085612e2c565b8160080154610d2a9190612f56565b94505b60080154955080610d3d81612fd4565b915050610c54565b508315610d5957610d568487612e2c565b90505b6000610d66846014612f37565b610d71600a84612e2c565b610d7c88600a612f37565b610d886103e88b612e2c565b610d938c6005612f37565b610d9d9190612e14565b610da79190612e14565b610db19190612e14565b610dbb9190612f56565b90506064811115610ddf575050606460019097018790555094979650505050505050565b6001909801889055509598975050505050505050565b604080518082018252600a8152691a5b991a5d9a591d585b60b21b602080830191909152825180840184526005815264067726f75760dc1b818301529251919291610e4291849101612a80565b6040516020818303038152906040528051906020012083604051602001610e699190612a80565b604051602081830303815290604052805190602001201415610ed5576000848152600160205260409020546001600160a01b031615610ed557600084815260016020819052604090912060078101805460ff191690921790915542600682015560028101546003909101555b80604051602001610ee69190612a80565b6040516020818303038152906040528051906020012083604051602001610f0d9190612a80565b604051602081830303815290604052805190602001201415610f77576000848152600260205260409020546001600160a01b031615610f7757600084815260026020819052604090912060078101805460ff19166001179055426006820155908101546003909101555b50505050565b600460208190526000918252604090912080546001820154600283015460038401549484015460058501805494966001600160a01b0380861697600160a01b90960460ff16969416949093909190610fd490612f99565b80601f016020809104026020016040519081016040528092919081815260200182805461100090612f99565b801561104d5780601f106110225761010080835404028352916020019161104d565b820191906000526020600020905b81548152906001019060200180831161103057829003601f168201915b50505050509080600601549080600701549080600801549080600901549080600a01549080600b015490508d565b6006602052816000526040600020818154811061109757600080fd5b60009182526020909120600390910201805460018201546002909201549093506001600160a01b03909116915083565b60085460609060008167ffffffffffffffff8111156110f657634e487b7160e01b600052604160045260246000fd5b60405190808252806020026020018201604052801561112f57816020015b61111c61264e565b8152602001906001900390816111145790505b50905060015b8281116109f05760008181526001602081815260409283902083516101008101855281546001600160a01b031681529281015491830191909152600280820154938301939093526003810154606083015260048101546080830152600581015460a0830152600681015460c083015260078101549192909160e084019160ff909116908111156111d557634e487b7160e01b600052602160045260246000fd5b60028111156111f457634e487b7160e01b600052602160045260246000fd5b90525082611203600184612f56565b8151811061122157634e487b7160e01b600052603260045260246000fd5b6020026020010181905250808061123790612fd4565b915050611135565b606060066000838152602001908152602001600020805480602002602001604051908101604052809291908181526020016000905b828210156112c95760008481526020908190206040805160608101825260038602909201805483526001808201546001600160a01b031684860152600290910154918301919091529083529092019101611274565b505050509050919050565b6040805160a08101825260008082526020820181905291810182905260608082015260808101919091523360009081526020818152604091829020825160a08101845281546001600160a01b03168152600182015481840152600282015460ff16151581850152600382018054855181860281018601909652808652919492936060860193929083018282801561138a57602002820191906000526020600020905b815481526020019060010190808311611376575b50505050508152602001600482015481525050905090565b33600090815260208190526040902060048101548311156113fc5760405162461bcd60e51b8152602060048201526014602482015273496e73756666696369656e742062616c616e636560601b6044820152606401610a4c565b3360009081526020819052604090206002015460ff1615156001146114595760405162461bcd60e51b8152602060048201526013602482015272139251081a5cc81b9bdd081d995c9a599a5959606a1b6044820152606401610a4c565b8281600401546114699190612f56565b600482015560085460009061147f906001612e14565b60088054919250600061149183612fd4565b9091555050600081815260016020819052604090912080546001600160a01b0319163317815590810191909155600281018490556003810193909355506004820155600701805460ff19169055565b6040518060c0016040528060008152602001606481526020018215158152602001600a67ffffffffffffffff81111561152957634e487b7160e01b600052604160045260246000fd5b604051908082528060200260200182016040528015611552578160200160208202803683370190505b508152600060208083018290526040928301829052338252600380825291839020845181558482015160018201559284015160028401805460ff1916911515919091179055606084015180516115af9385019291909101906126ba565b506080820151600482015560a09091015160059091015550565b600060095460016115da9190612e14565b6009805491925060006115ec83612fd4565b9091555050600081815260026020526040902080546001600160a01b03191633178155600481019290925560078201805460ff19169055600190910155565b60408051808201825260048152633ab9b2b960e11b60208083019190915282518084018452600681526539ba30b5b2b960d11b81830152925191929161167391849101612a80565b604051602081830303815290604052805190602001208360405160200161169a9190612a80565b6040516020818303038152906040528051906020012014156116e157336000908152602081905260408120600401805434928392916116da908490612e14565b9091555050505b806040516020016116f29190612a80565b60405160208183030381529060405280519060200120836040516020016117199190612a80565b6040516020818303038152906040528051906020012014156117605733600090815260036020526040812060058101805491923492611759908490612e14565b9091555050505b505050565b600081815260046020908152604080832054338452600390925290912060050154116117ea5760405162461bcd60e51b815260206004820152602e60248201527f596f7520646f6e2774206861766520656e6f7567682062616c616e63652e207960448201526d037ba903130b630b731b29034b9960951b6064820152608401610a4c565b3360009081526003602052604090206002015460ff1615156001146118515760405162461bcd60e51b815260206004820152601a60248201527f5374616b6572204e4944206973206e6f742076657269666965640000000000006044820152606401610a4c565b60008181526004602090815260408083206002810180546001600160a01b03191633908117909155905490845260039092528220600501805491929091611899908490612f56565b909155505060009081526004602081815260408084208054338652600380855292862090815593835260019081015493909101805491820181558452922090910180546001600160a01b0319166001600160a01b0392909216919091179055565b60095460609060008167ffffffffffffffff81111561192957634e487b7160e01b600052604160045260246000fd5b60405190808252806020026020018201604052801561196257816020015b61194f61264e565b8152602001906001900390816119475790505b50905060015b8281116109f05760008181526002602081815260409283902083516101008101855281546001600160a01b0316815260018201549281019290925280830154938201939093526003830154606082015260048301546080820152600583015460a0820152600683015460c0820152600783015490929160e084019160ff1690811115611a0457634e487b7160e01b600052602160045260246000fd5b6002811115611a2357634e487b7160e01b600052602160045260246000fd5b90525082611a32600184612f56565b81518110611a5057634e487b7160e01b600052603260045260246000fd5b60200260200101819052508080611a6690612fd4565b915050611968565b604080518082018252600a8152691a5b991a5d9a591d585b60b21b602080830191909152825180840184526005815264067726f75760dc1b818301529251919291611abb91849101612a80565b6040516020818303038152906040528051906020012083604051602001611ae29190612a80565b604051602081830303815290604052805190602001201415611c8d576000848152600460208181526040808420805493015484526001909152909120600301541015611b705760405162461bcd60e51b815260206004820152601c60248201527f4e6f7420656e6f7567682066756e6420696e20746865207661756c74000000006044820152606401610a4c565b6000848152600460205260409020600201546001600160a01b0316611bc95760405162461bcd60e51b815260206004820152600f60248201526e139bc81cdd185ad95c88199bdd5b99608a1b6044820152606401610a4c565b60008481526004602081815260408084206001808201546001600160a01b0316865285845291852060038101805493840181558652838620909201899055888552918390529054918101805491939091611c24908490612e14565b909155505060008581526004602081815260408084208054930154845260019091528220600301805491929091611c5c908490612f56565b909155505050600084815260046020526040902060018101805460ff60a01b1916600160a01b179055426003909101555b80604051602001611c9e9190612a80565b6040516020818303038152906040528051906020012083604051602001611cc59190612a80565b604051602081830303815290604052805190602001201415610f77576000848152600460208181526040808420805493015484526002909152909120600301541015611d535760405162461bcd60e51b815260206004820152601c60248201527f4e6f7420656e6f7567682066756e6420696e20746865207661756c74000000006044820152606401610a4c565b6000848152600460205260409020600201546001600160a01b0316611dac5760405162461bcd60e51b815260206004820152600f60248201526e139bc81cdd185ad95c88199bdd5b99608a1b6044820152606401610a4c565b600084815260046020818152604080842060018101546001600160a01b031685528483529084208885529183905254918101805491939091611def908490612e14565b909155505060008581526004602081815260408084208054930154845260029091528220600301805491929091611e27908490612f56565b909155505050600093845250506004602052506040902060018101805460ff60a01b1916600160a01b17905542600390910155565b600082815260046020526040812060090154908080611e7a856124ec565b905080611fbb57600086815260046020818152604080842083015480855260019092529092209081015434871115611f085760405162461bcd60e51b815260206004820152602b60248201527f416d6f756e74206d75737420626520657175616c206f72206d6f72652074686160448201526a6e20656163685f7465726d60a81b6064820152608401610a4c565b6000898152600460205260408120600801805460019290611f2a908490612e14565b9091555060009050611f3c88836125f0565b905080836003016000828254611f529190612e14565b90915550611f6290508189612f56565b9650611f6f87600561261d565b9550611f7b8688612f56565b6005840155611f8933610c2f565b5050506000888152600460208181526040808420600201546001600160a01b0316845260039091529091200184905550505b80600114156121105760008681526004602081815260408084208301548085526002909252909220908101543487111561205d5760405162461bcd60e51b815260206004820152603960248201527f416d6f756e74206d75737420626520657175616c206f72206d6f72652074686160448201527f6e206561636820696e7374616c6c6d656e7420616d6f756e74000000000000006064820152608401610a4c565b600089815260046020526040812060080180546001929061207f908490612e14565b909155506000905061209188836125f0565b9050808360030160008282546120a79190612e14565b909155506120b790508189612f56565b96506120c487600561261d565b95506120d08688612f56565b60058401556120de33610c2f565b5050506000888152600460208181526040808420600201546001600160a01b0316845260039091529091200184905550505b505050505050565b6040805160a0810182523380825260006020808401828152600185870181815287518581528085018952606088019081526080880186905295855284845296909320855181546001600160a01b0319166001600160a01b03909116178155905192810192909255935160028201805460ff191691151591909117905590518051929391926121ac926003850192019061271f565b5060808201518160040155905050565b620186a08411156122215760405162461bcd60e51b815260206004820152602960248201527f6578636565646564206c6f616e206c696d69742e204f6e6c79207570746f2031604482015268303030302074616b6160b81b6064820152608401610a4c565b6000600a5460016122329190612e14565b600a8054919250600061224483612fd4565b9091555050604080516101a0810182528681523360208083019182526000838501818152606085018290526080850182905260a085018d905260c085018c905260e085018290526101008501899052610120850182905261014085018a9052610160850188905261018085018290528682526004909252939093208251815590516001820180546001600160a01b039092166001600160a01b0319831681178255945193948594926001600160a81b03191617600160a01b83600281111561231c57634e487b7160e01b600052602160045260246000fd5b021790555060608201516002820180546001600160a01b0319166001600160a01b039092169190911790556080820151600382015560a0820151600482015560c0820151805161237691600584019160209091019061275a565b5060e08201516006820155610100820151600782015561012082015160088201556101408201516009820155610160820151600a82015561018090910151600b909101555050505050505050565b336000908152602081905260409020600401548111156124265760405162461bcd60e51b815260206004820152601d60248201527f796f7520646f6e2774206861766520656e6f7567682062616c616e63650000006044820152606401610a4c565b804710156124825760405162461bcd60e51b815260206004820152602360248201527f4e6f7420656e6f7567682062616c616e636520696e2074686520636f6e74726160448201526231ba1760e91b6064820152608401610a4c565b600061248f82600161261d565b6124999083612f56565b604051909150339082156108fc029083906000818181858888f193505050501580156124c9573d6000803e3d6000fd5b503360009081526020819052604081206004018054849290610c26908490612f56565b604080518082018252600a8152691a5b991a5d9a591d585b60b21b602080830191909152825180840184526005815264067726f75760dc1b8183015292516000939161253a91849101612a80565b60405160208183030381529060405280519060200120846040516020016125619190612a80565b604051602081830303815290604052805190602001201415612587575060009392505050565b806040516020016125989190612a80565b60405160208183030381529060405280519060200120846040516020016125bf9190612a80565b6040516020818303038152906040528051906020012014156125e5575060019392505050565b506101909392505050565b6000806125fe836064612e14565b612609856064612f37565b6126139190612e2c565b9150505b92915050565b6000828260028361262f82600a612e8f565b6126398486612f37565b6126439190612e2c565b979650505050505050565b60405180610100016040528060006001600160a01b03168152602001600081526020016000815260200160008152602001600081526020016000815260200160008152602001600060028111156126b557634e487b7160e01b600052602160045260246000fd5b905290565b82805482825590600052602060002090810192821561270f579160200282015b8281111561270f57825182546001600160a01b0319166001600160a01b039091161782556020909201916001909101906126da565b5061271b9291506127cd565b5090565b82805482825590600052602060002090810192821561270f579160200282015b8281111561270f57825182559160200191906001019061273f565b82805461276690612f99565b90600052602060002090601f016020900481019282612788576000855561270f565b82601f106127a157805160ff191683800117855561270f565b8280016001018555821561270f579182018281111561270f57825182559160200191906001019061273f565b5b8082111561271b57600081556001016127ce565b600082601f8301126127f2578081fd5b813567ffffffffffffffff8082111561280d5761280d613005565b604051601f8301601f19908116603f0116810190828211818310171561283557612835613005565b8160405283815286602085880101111561284d578485fd5b8360208701602083013792830160200193909352509392505050565b60006020828403121561287a578081fd5b81356001600160a01b0381168114612890578182fd5b9392505050565b6000602082840312156128a8578081fd5b81358015158114612890578182fd5b6000602082840312156128c8578081fd5b813567ffffffffffffffff8111156128de578182fd5b6128ea848285016127e2565b949350505050565b600060208284031215612903578081fd5b5035919050565b6000806040838503121561291c578081fd5b82359150602083013567ffffffffffffffff811115612939578182fd5b612945858286016127e2565b9150509250929050565b60008060008060008060c08789031215612967578182fd5b86359550602087013567ffffffffffffffff811115612984578283fd5b61299089828a016127e2565b96999698505050506040850135946060810135946080820135945060a09091013592509050565b600080604083850312156129c9578182fd5b50508035926020909101359150565b600381106129f657634e487b7160e01b600052602160045260246000fd5b9052565b60008151808452612a12816020860160208601612f6d565b601f01601f19169290920160200192915050565b60018060a01b0381511682526020810151602083015260408101516040830152606081015160608301526080810151608083015260a081015160a083015260c081015160c083015260e081015161176060e08401826129d8565b60008251612a92818460208701612f6d565b9190910192915050565b6001600160a01b03891681526020810188905260408101879052606081018690526080810185905260a0810184905260c081018390526101008101612ae460e08301846129d8565b9998505050505050505050565b602080825282518282018190526000919060409081850190868401855b82811015612b4657815180518552868101516001600160a01b0316878601528501518585015260609093019290850190600101612b0e565b5091979650505050505050565b6020808252825182820181905260009190848201906040850190845b81811015612b9657612b82838551612a26565b928401926101009290920191600101612b6f565b50909695505050505050565b60006020808301818452808551808352604092508286019150828160051b870101848801865b83811015612c9c57603f19898403018552815180518452878101516001600160a01b031688850152868101516101a090612c04898701826129d8565b506060828101516001600160a01b0316908601526080808301519086015260a0808301519086015260c080830151818701839052612c44838801826129fa565b60e0858101519089015261010080860151908901526101208086015190890152610140808601519089015261016080860151908901526101809485015194909701939093525050509386019390860190600101612bc8565b509098975050505050505050565b6020808252825182820181905260009190848201906040850190845b81811015612b9657612cd9838551612a26565b928401926101009290920191600101612cc6565b602080825282516001600160a01b03168282015282810151604080840191909152830151151560608084019190915283015160a06080840152805160c0840181905260009291820190839060e08601905b80831015612d5e5783518252928401926001929092019190840190612d3e565b50608087015160a08701528094505050505092915050565b8d81526001600160a01b038d81166020830152600090612d99604084018f6129d8565b808d166060840152508a60808301528960a08301526101a060c0830152612dc46101a083018a6129fa565b60e08301989098525061010081019590955261012085019390935261014084019190915261016083015261018090910152979650505050505050565b8281526040810161289060208301846129d8565b60008219821115612e2757612e27612fef565b500190565b600082612e4757634e487b7160e01b81526012600452602481fd5b500490565b600181815b80851115612e87578160001904821115612e6d57612e6d612fef565b80851615612e7a57918102915b93841c9390800290612e51565b509250929050565b60006128908383600082612ea557506001612617565b81612eb257506000612617565b8160018114612ec85760028114612ed257612eee565b6001915050612617565b60ff841115612ee357612ee3612fef565b50506001821b612617565b5060208310610133831016604e8410600b8410161715612f11575081810a612617565b612f1b8383612e4c565b8060001904821115612f2f57612f2f612fef565b029392505050565b6000816000190483118215151615612f5157612f51612fef565b500290565b600082821015612f6857612f68612fef565b500390565b60005b83811015612f88578181015183820152602001612f70565b83811115610f775750506000910152565b600181811c90821680612fad57607f821691505b60208210811415612fce57634e487b7160e01b600052602260045260246000fd5b50919050565b6000600019821415612fe857612fe8612fef565b5060010190565b634e487b7160e01b600052601160045260246000fd5b634e487b7160e01b600052604160045260246000fdfea26469706673582212209a1f012e49c0809630caa6fe305e3243ee6721f0e7dcd4d27fdea616b881ceb064736f6c63430008040033",
  "immutableReferences": {},
  "source": "// SPDX-License-Identifier: MIT\r\npragma solidity ^0.8.0;\r\n\r\ncontract Mifi {\r\n    // IERC20 public stablecoin;\r\n\r\n    struct User {\r\n        address user_address;\r\n        uint256 credit_score;\r\n        bool is_nid_verified;\r\n        uint256[] loan_id;\r\n        uint256 balance;\r\n    }\r\n\r\n    struct Loan {\r\n        uint256 amount;\r\n        address borrower;\r\n        Status status;\r\n        address staker;\r\n        uint256 start_date;\r\n        uint256 vault_id;\r\n        string vault_type;\r\n        uint256 borrowing_group_id;\r\n        uint256 no_of_installments;\r\n        uint256 no_of_installments_done;\r\n        uint256 each_installment_amount;\r\n        uint256 each_term;\r\n        uint256 next_term_due_date;\r\n    }\r\n\r\n    struct Staker {\r\n        uint256 total_amount_staked;\r\n        uint256 reputation_score;\r\n        bool is_nid_verified;\r\n        address[] referred_borrower;\r\n        uint256 reward;\r\n        uint256 balance;\r\n    }\r\n\r\n    struct Vault {\r\n        address vault_owner;\r\n        uint256 vault_id;\r\n        uint256 total_supply;\r\n        uint256 remaining_supply;\r\n        uint256 interest_rate;\r\n        uint256 interest_earned;\r\n        uint256 creation_date;\r\n        Status status;\r\n    }\r\n    struct Group_Vault {\r\n        address protocol_manager;\r\n        uint256 vault_id;\r\n        uint256 total_supply;\r\n        uint256 remaining_supply;\r\n        uint256 interest_rate;\r\n        uint256 interest_earned;\r\n        uint256 creation_date;\r\n        Status status;\r\n    }\r\n    struct Contribution {\r\n        uint256 vault_id;\r\n        address member;\r\n        uint256 contribution;\r\n    }\r\n\r\n    struct Borrowing_group {\r\n        uint256 total_funded;\r\n        mapping(address => mapping(uint256 => uint256)) member_loanId_votes;\r\n        Status status;\r\n    }\r\n\r\n    enum Status {\r\n        pending,\r\n        approved,\r\n        cancelled\r\n    }\r\n\r\n    mapping(address => User) public address_user;\r\n    mapping(uint256 => Vault) public vaultId_vault;\r\n    mapping(uint256 => Group_Vault) public groupVaultId_vault;\r\n    mapping(address => Staker) public address_staker;\r\n    mapping(uint256 => Loan) public loanId_loan;\r\n    mapping(uint256 => Borrowing_group) public groupId_borrowingGroup;\r\n    mapping(uint256 => Contribution[]) public groupVaultId_contribution;\r\n\r\n    uint256 private last_borrowing_group_id;\r\n    uint256 private last_vault_id;\r\n    uint256 private last_group_vault_id;\r\n    uint256 private last_loan_id;\r\n    address owner;\r\n\r\n    constructor() {\r\n        //IERC20 _stablecoin\r\n        // stablecoin = _stablecoin;\r\n        owner = payable(msg.sender);\r\n        last_borrowing_group_id = 0;\r\n        last_vault_id = 0;\r\n        last_group_vault_id = 0;\r\n        last_loan_id = 0;\r\n    }\r\n\r\n    function become_staker(bool _is_nid_verified) external {\r\n        address_staker[msg.sender] = Staker({\r\n            total_amount_staked: 0,\r\n            reputation_score: 100,\r\n            is_nid_verified: _is_nid_verified,\r\n            balance: 0,\r\n            reward: 0,\r\n            referred_borrower: new address[](10)\r\n        });\r\n    }\r\n\r\n    function stake(uint256 loan_id) external {\r\n        require(\r\n            address_staker[msg.sender].balance > loanId_loan[loan_id].amount,\r\n            \"You don't have enough balance. you balance is \"\r\n        );\r\n        require(\r\n            address_staker[msg.sender].is_nid_verified == true,\r\n            \"Staker NID is not verified\"\r\n        );\r\n\r\n        loanId_loan[loan_id].staker = msg.sender;\r\n        address_staker[msg.sender].balance -= loanId_loan[loan_id].amount;\r\n        address_staker[msg.sender].total_amount_staked = loanId_loan[loan_id]\r\n            .amount;\r\n        address_staker[msg.sender].referred_borrower.push(\r\n            loanId_loan[loan_id].borrower\r\n        );\r\n\r\n        //emit en event to the PM.\r\n    }\r\n\r\n    function create_individual_vault(\r\n        uint256 total_amount,\r\n        uint256 interest_rate\r\n    ) external {\r\n        User storage user = address_user[msg.sender];\r\n        require(user.balance >= total_amount, \"Insufficient balance\");\r\n        require(\r\n            address_user[msg.sender].is_nid_verified == true,\r\n            \"NID is not verified\"\r\n        );\r\n\r\n        user.balance = user.balance - total_amount;\r\n\r\n        uint256 vault_id = last_vault_id + 1;\r\n        last_vault_id++;\r\n        // vaultId_vault[vault_id] = Vault({});\r\n        Vault storage vault = vaultId_vault[vault_id];\r\n        vault.vault_owner = msg.sender;\r\n        vault.vault_id = vault_id;\r\n        vault.total_supply = total_amount;\r\n        vault.remaining_supply = total_amount; //remaining balance\r\n        vault.interest_rate = interest_rate;\r\n        vault.status = Status.pending;\r\n        // emit VaultCreated(vaultId, msg.sender, interestRate, isGroupVault);\r\n    }\r\n\r\n    function initiate_group_vault(uint256 interest_rate) external {\r\n        // require(\r\n        //     msg.sender == pm_address;\r\n        //     \"only pm can initiate a group vault\"\r\n        // ); //\r\n        uint256 vault_id = last_group_vault_id + 1;\r\n        last_group_vault_id++;\r\n        Group_Vault storage group_vault = groupVaultId_vault[vault_id];\r\n        group_vault.protocol_manager = msg.sender;\r\n        group_vault.interest_rate = interest_rate;\r\n        group_vault.status = Status.pending;\r\n        group_vault.vault_id = vault_id;\r\n    }\r\n\r\n    function join_group_vault(uint256 _contribution, uint256 _vault_id)\r\n        external\r\n    {\r\n        require(\r\n            address_user[msg.sender].balance >= _contribution,\r\n            \"Insufficient balance\"\r\n        );\r\n        require(\r\n            address_user[msg.sender].is_nid_verified == true,\r\n            \"NID is not verified\"\r\n        );\r\n        User storage user = address_user[msg.sender];\r\n        groupVaultId_vault[_vault_id].total_supply += _contribution;\r\n        user.balance = user.balance - _contribution;\r\n\r\n        Contribution memory contribution = Contribution({\r\n            vault_id: _vault_id,\r\n            member: msg.sender,\r\n            contribution: _contribution\r\n        });\r\n        groupVaultId_contribution[_vault_id].push(contribution);\r\n    }\r\n\r\n    function approve_vault(uint256 vault_id, string memory vault_type)\r\n        external\r\n    {\r\n        string memory _individual = \"individual\";\r\n        string memory _group = \"group\";\r\n        //for individual vault\r\n        if (\r\n            keccak256(abi.encodePacked(vault_type)) ==\r\n            keccak256(abi.encodePacked(_individual))\r\n        ) {\r\n            if (vaultId_vault[vault_id].vault_owner != address(0)) {\r\n                vaultId_vault[vault_id].status = Status.approved;\r\n                vaultId_vault[vault_id].creation_date = block.timestamp;\r\n                vaultId_vault[vault_id].remaining_supply = vaultId_vault[\r\n                    vault_id\r\n                ].total_supply;\r\n            }\r\n        }\r\n        if (\r\n            keccak256(abi.encodePacked(vault_type)) ==\r\n            keccak256(abi.encodePacked(_group))\r\n        ) {\r\n            if (groupVaultId_vault[vault_id].protocol_manager != address(0)) {\r\n                groupVaultId_vault[vault_id].status = Status.approved;\r\n                groupVaultId_vault[vault_id].creation_date = block.timestamp;\r\n                groupVaultId_vault[vault_id]\r\n                    .remaining_supply = groupVaultId_vault[vault_id]\r\n                    .total_supply;\r\n            }\r\n        }\r\n    }\r\n\r\n    function individual_borrow(\r\n        uint256 _vault_id,\r\n        string memory _vault_type,\r\n        uint256 _amount,\r\n        uint256 _each_installment_amount,\r\n        uint256 _no_of_installments,\r\n        uint256 _each_term\r\n    ) external {\r\n        require(_amount <= 100000, \"exceeded loan limit. Only upto 10000 taka\");\r\n        uint256 loan_id = last_loan_id + 1;\r\n        last_loan_id++;\r\n\r\n        Loan memory loan = Loan({\r\n            borrower: msg.sender,\r\n            amount: _amount,\r\n            status: Status.pending,\r\n            vault_id: _vault_id,\r\n            vault_type: _vault_type,\r\n            no_of_installments: _no_of_installments,\r\n            each_installment_amount: _each_installment_amount,\r\n            each_term: _each_term,\r\n            staker: address(0), // Add a default value or a suitable value for the staker field\r\n            start_date: 0, // Add a default value or a suitable value for the start_date field\r\n            borrowing_group_id: 0, // Add a default value or a suitable value for the borrowing_group_id field\r\n            no_of_installments_done: 0, // Add a default value for the no_of_installments_done field\r\n            next_term_due_date: 0\r\n        });\r\n        loanId_loan[loan_id] = loan;\r\n    }\r\n\r\n    function approve_loan(uint256 _loan_id, string memory vault_type) external {\r\n        string memory _individual = \"individual\";\r\n        string memory _group = \"group\";\r\n        //for individual vault\r\n        if (\r\n            keccak256(abi.encodePacked(vault_type)) ==\r\n            keccak256(abi.encodePacked(_individual))\r\n        ) {\r\n            require(\r\n                vaultId_vault[loanId_loan[_loan_id].vault_id]\r\n                    .remaining_supply >= loanId_loan[_loan_id].amount,\r\n                \"Not enough fund in the vault\"\r\n            );\r\n            require(\r\n                loanId_loan[_loan_id].staker != address(0),\r\n                \"No staker found\"\r\n            );\r\n\r\n            User storage user = address_user[loanId_loan[_loan_id].borrower];\r\n            user.loan_id.push(_loan_id);\r\n            user.balance += loanId_loan[_loan_id].amount;\r\n            vaultId_vault[loanId_loan[_loan_id].vault_id]\r\n                .remaining_supply -= loanId_loan[_loan_id].amount;\r\n            loanId_loan[_loan_id].status = Status.approved;\r\n            loanId_loan[_loan_id].start_date = block.timestamp;\r\n        }\r\n        if (\r\n            keccak256(abi.encodePacked(vault_type)) ==\r\n            keccak256(abi.encodePacked(_group))\r\n        ) {\r\n            require(\r\n                groupVaultId_vault[loanId_loan[_loan_id].vault_id]\r\n                    .remaining_supply >= loanId_loan[_loan_id].amount,\r\n                \"Not enough fund in the vault\"\r\n            );\r\n            require(\r\n                loanId_loan[_loan_id].staker != address(0),\r\n                \"No staker found\"\r\n            );\r\n\r\n            User storage user = address_user[loanId_loan[_loan_id].borrower];\r\n            user.balance += loanId_loan[_loan_id].amount;\r\n            groupVaultId_vault[loanId_loan[_loan_id].vault_id]\r\n                .remaining_supply -= loanId_loan[_loan_id].amount;\r\n            loanId_loan[_loan_id].status = Status.approved;\r\n            loanId_loan[_loan_id].start_date = block.timestamp;\r\n        }\r\n    }\r\n\r\n    function cashout_balance(uint256 _amount) external {\r\n        // require(msg.sender == owner, \"Only the owner can transfer money from contract.\");\r\n        require(\r\n            address_user[msg.sender].balance >= _amount,\r\n            \"you don't have enough balance\"\r\n        );\r\n        require(\r\n            address(this).balance >= _amount,\r\n            \"Not enough balance in the contract.\"\r\n        );\r\n        uint256 cashout_amount = _amount - calculate_fees(_amount, 1);\r\n        payable(msg.sender).transfer(cashout_amount);\r\n        address_user[msg.sender].balance -= _amount;\r\n    }\r\n\r\n    function individual_installment_repay_wtih_interest(\r\n        uint256 _loan_id,\r\n        string memory _vault_type\r\n    ) external payable {\r\n        uint256 installment_amount = loanId_loan[_loan_id]\r\n            .each_installment_amount;\r\n        uint256 interest_earned;\r\n        uint256 staker_fee;\r\n        uint256 vault_type = detect_vault(_vault_type);\r\n        if (vault_type == 0) {\r\n            uint256 vault_id = loanId_loan[_loan_id].vault_id;\r\n            Vault storage vault = vaultId_vault[vault_id];\r\n            uint256 interest_rate = vault.interest_rate;\r\n            require(\r\n                msg.value >= installment_amount,\r\n                \"Amount must be equal or more than each_term\"\r\n            );\r\n            loanId_loan[_loan_id].no_of_installments_done += 1;\r\n            uint256 capital_amount = breakdown_repayment(\r\n                installment_amount,\r\n                interest_rate\r\n            );\r\n            vault.remaining_supply += capital_amount;\r\n            interest_earned = installment_amount - capital_amount;\r\n            staker_fee = calculate_fees(interest_earned, 5);\r\n            vault.interest_earned = interest_earned - staker_fee;\r\n            //calculate credit score for borrower\r\n            update_credit_score(msg.sender);\r\n            // give staker the reward\r\n            address_staker[loanId_loan[_loan_id].staker].reward = staker_fee;\r\n        }\r\n        if (vault_type == 1) {\r\n            uint256 vault_id = loanId_loan[_loan_id].vault_id;\r\n            Group_Vault storage vault = groupVaultId_vault[vault_id];\r\n            uint256 interest_rate = vault.interest_rate;\r\n            require(\r\n                msg.value >= installment_amount,\r\n                \"Amount must be equal or more than each installment amount\"\r\n            );\r\n            loanId_loan[_loan_id].no_of_installments_done += 1;\r\n            // add the interest\r\n            uint256 capital_amount = breakdown_repayment(\r\n                installment_amount,\r\n                interest_rate\r\n            );\r\n            vault.remaining_supply += capital_amount;\r\n            interest_earned = installment_amount - capital_amount;\r\n            staker_fee = calculate_fees(interest_earned, 5);\r\n            vault.interest_earned = interest_earned - staker_fee;\r\n            //calculate credit score for borrower\r\n            update_credit_score(msg.sender);\r\n            // give staker the reward\r\n            address_staker[loanId_loan[_loan_id].staker].reward = staker_fee;\r\n        }\r\n    }\r\n\r\n    function detect_vault(string memory _vault_type)\r\n        internal\r\n        pure\r\n        returns (uint256)\r\n    {\r\n        string memory _individual = \"individual\";\r\n        string memory _group = \"group\";\r\n\r\n        if (\r\n            keccak256(abi.encodePacked(_vault_type)) ==\r\n            keccak256(abi.encodePacked(_individual))\r\n        ) {\r\n            return 0;\r\n        }\r\n        if (\r\n            keccak256(abi.encodePacked(_vault_type)) ==\r\n            keccak256(abi.encodePacked(_group))\r\n        ) {\r\n            return 1;\r\n        }\r\n        return 400;\r\n    }\r\n\r\n    function update_credit_score(address user_address)\r\n        public\r\n        returns (uint256)\r\n    {\r\n        User storage user = address_user[user_address];\r\n\r\n        uint256 total_loans_taken = user.loan_id.length;\r\n        uint256 total_loan_repaid = 0;\r\n        uint256 timely_repayments = 0;\r\n        uint256 total_repayment_days = 0;\r\n        uint256 defaults = 0;\r\n        uint256 time_elapsed;\r\n        uint256 avg_repayment_per_day = 0;\r\n\r\n        for (uint256 i = 0; i < total_loans_taken; i++) {\r\n            Loan storage loan = loanId_loan[user.loan_id[i]];\r\n            total_loan_repaid +=\r\n                loan.no_of_installments_done *\r\n                loan.each_installment_amount;\r\n            total_repayment_days +=\r\n                loan.no_of_installments_done *\r\n                (loan.each_term / 86400);\r\n            time_elapsed = block.timestamp - loan.start_date;\r\n            if (loan.each_term != 0) {\r\n                defaults =\r\n                    loan.no_of_installments_done -\r\n                    (time_elapsed / loan.each_term);\r\n            }\r\n            timely_repayments = loan.no_of_installments_done;\r\n        }\r\n\r\n        if (total_repayment_days != 0) {\r\n            avg_repayment_per_day = total_loan_repaid / total_repayment_days;\r\n        }\r\n\r\n        uint256 new_credit_score = (total_loans_taken * 5) +\r\n            (total_loan_repaid / 1000) +\r\n            (timely_repayments * 10) +\r\n            (avg_repayment_per_day / 10) -\r\n            (defaults * 20);\r\n\r\n        if (new_credit_score > 100) {\r\n            user.credit_score = 100;\r\n            return 100;\r\n        } else if (new_credit_score < 0) {\r\n            user.credit_score = 0;\r\n            return 0;\r\n        } else {\r\n            user.credit_score = new_credit_score;\r\n            return new_credit_score;\r\n        }\r\n    }\r\n\r\n    function breakdown_repayment(\r\n        uint256 repayment_amount,\r\n        uint256 interest_rate\r\n    ) internal pure returns (uint256) {\r\n        uint256 capital_amount = (100 * repayment_amount) /\r\n            (100 + interest_rate);\r\n        return capital_amount;\r\n    }\r\n\r\n    function calculate_fees(uint256 _amount, uint256 rate)\r\n        internal\r\n        pure\r\n        returns (uint256)\r\n    {\r\n        uint256 x = _amount;\r\n        uint256 y = rate; //fee = 1%\r\n        uint256 decimals = 2; // Number of decimal places\r\n\r\n        uint256 result = (x * y) / (10**decimals);\r\n        return result;\r\n    }\r\n\r\n    function calculate_interest(uint256 _amount, uint256 interest_rate)\r\n        internal\r\n        pure\r\n        returns (uint256)\r\n    {\r\n        uint256 x = _amount;\r\n        uint256 y = interest_rate; //interest_rate(1%-10%)\r\n        uint256 decimals = 2; // Number of decimal places\r\n\r\n        uint256 result = (x * y) / (10**decimals);\r\n        return result;\r\n    }\r\n\r\n    function add_balance(string memory user_type) external payable {\r\n        string memory _user = \"user\";\r\n        string memory _staker = \"staker\";\r\n        if (\r\n            keccak256(abi.encodePacked(user_type)) ==\r\n            keccak256(abi.encodePacked(_user))\r\n        ) {\r\n            uint256 amount = msg.value;\r\n            address_user[msg.sender].balance += amount;\r\n        }\r\n        if (\r\n            keccak256(abi.encodePacked(user_type)) ==\r\n            keccak256(abi.encodePacked(_staker))\r\n        ) {\r\n            Staker storage staker = address_staker[msg.sender];\r\n            staker.balance += msg.value;\r\n        }\r\n    }\r\n\r\n    function add_user() external {\r\n        address_user[msg.sender] = User({\r\n            user_address: msg.sender,\r\n            is_nid_verified: true,\r\n            loan_id: new uint256[](0),\r\n            balance: 0,\r\n            credit_score: 0\r\n        });\r\n    }\r\n\r\n    function get_balance() external view returns (uint256) {\r\n        return address_user[msg.sender].balance;\r\n    }\r\n\r\n    function show_user() external view returns (User memory) {\r\n        return address_user[msg.sender];\r\n    }\r\n\r\n    function show_last_vault_id() external view returns (uint256) {\r\n        return last_vault_id;\r\n    }\r\n\r\n    function withdraw_balance(uint256 amount) external {\r\n        User storage user = address_user[msg.sender];\r\n        require(\r\n            amount <= user.balance,\r\n            \"withdraw amount is more than your balance\"\r\n        );\r\n        payable(msg.sender).transfer(amount);\r\n        user.balance -= amount;\r\n    }\r\n\r\n    function show_contract_balance() external view returns (uint256) {\r\n        return address(this).balance;\r\n    }\r\n\r\n    function show_all_individual_vault() public view returns (Vault[] memory) {\r\n        uint256 size = last_vault_id; // determine the size of the mapping\r\n        Vault[] memory vaultArray = new Vault[](size);\r\n\r\n        for (uint256 i = 1; i <= size; i++) {\r\n            vaultArray[i - 1] = vaultId_vault[i];\r\n        }\r\n        return vaultArray;\r\n    }\r\n\r\n    function show_all_group_vault() public view returns (Group_Vault[] memory) {\r\n        uint256 size = last_group_vault_id; // determine the size of the mapping\r\n        Group_Vault[] memory group_vautl_array = new Group_Vault[](size);\r\n\r\n        for (uint256 i = 1; i <= size; i++) {\r\n            group_vautl_array[i - 1] = groupVaultId_vault[i];\r\n        }\r\n        return group_vautl_array;\r\n    }\r\n\r\n      function show_contribution(uint _vault_id) public view returns (Contribution[] memory) {\r\n        return groupVaultId_contribution[_vault_id];\r\n    }\r\n\r\n\r\n    function show_all_loan() public view returns (Loan[] memory) {\r\n        uint256 size = last_loan_id; // determine the size of the mapping\r\n        Loan[] memory loanArray = new Loan[](size);\r\n\r\n        for (uint256 i = 1; i <= size; i++) {\r\n            loanArray[i - 1] = loanId_loan[i];\r\n        }\r\n        return loanArray;\r\n    }\r\n\r\n    function time() public view returns (uint256) {\r\n        return block.timestamp;\r\n    }\r\n}\r\n",
  "sourcePath": "D:\\today\\Microfinance_dapp\\truffle\\contracts\\mifi.sol",
  "compiler": {
    "name": "solc",
    "version": "0.8.4+commit.c7e474f2.Emscripten.clang"
  },
  "schemaVersion": "3.4.13",
  "updatedAt": "2023-05-19T06:16:15.947Z",
  "networkType": "ethereum",
  "devdoc": {
    "kind": "dev",
    "methods": {},
    "version": 1
  },
  "userdoc": {
    "kind": "user",
    "methods": {},
    "version": 1
  }
}