{
  "contractName": "Note",
  "abi": [
    {
      "inputs": [
        {
          "internalType": "uint256",
          "name": "",
          "type": "uint256"
        }
      ],
      "name": "all_address",
      "outputs": [
        {
          "internalType": "address",
          "name": "",
          "type": "address"
        }
      ],
      "stateMutability": "view",
      "type": "function",
      "constant": true
    },
    {
      "inputs": [
        {
          "internalType": "address",
          "name": "",
          "type": "address"
        }
      ],
      "name": "all_users",
      "outputs": [
        {
          "internalType": "string",
          "name": "name",
          "type": "string"
        },
        {
          "internalType": "uint256",
          "name": "number",
          "type": "uint256"
        },
        {
          "internalType": "address",
          "name": "account_address",
          "type": "address"
        }
      ],
      "stateMutability": "view",
      "type": "function",
      "constant": true
    },
    {
      "inputs": [
        {
          "internalType": "address",
          "name": "",
          "type": "address"
        }
      ],
      "name": "notes",
      "outputs": [
        {
          "internalType": "string",
          "name": "",
          "type": "string"
        }
      ],
      "stateMutability": "view",
      "type": "function",
      "constant": true
    },
    {
      "inputs": [
        {
          "internalType": "string",
          "name": "name",
          "type": "string"
        },
        {
          "internalType": "uint256",
          "name": "number",
          "type": "uint256"
        }
      ],
      "name": "register",
      "outputs": [],
      "stateMutability": "nonpayable",
      "type": "function"
    },
    {
      "inputs": [
        {
          "internalType": "string",
          "name": "note",
          "type": "string"
        }
      ],
      "name": "saveNote",
      "outputs": [],
      "stateMutability": "nonpayable",
      "type": "function"
    },
    {
      "inputs": [],
      "name": "getNote",
      "outputs": [
        {
          "internalType": "string",
          "name": "",
          "type": "string"
        }
      ],
      "stateMutability": "view",
      "type": "function",
      "constant": true
    },
    {
      "inputs": [],
      "name": "getAddress",
      "outputs": [
        {
          "internalType": "address[]",
          "name": "",
          "type": "address[]"
        }
      ],
      "stateMutability": "view",
      "type": "function",
      "constant": true
    },
    {
      "inputs": [
        {
          "internalType": "address",
          "name": "id",
          "type": "address"
        }
      ],
      "name": "getUser",
      "outputs": [
        {
          "components": [
            {
              "internalType": "string",
              "name": "name",
              "type": "string"
            },
            {
              "internalType": "uint256",
              "name": "number",
              "type": "uint256"
            },
            {
              "internalType": "address",
              "name": "account_address",
              "type": "address"
            }
          ],
          "internalType": "struct Note.User",
          "name": "",
          "type": "tuple"
        }
      ],
      "stateMutability": "view",
      "type": "function",
      "constant": true
    },
    {
      "inputs": [],
      "name": "showNotes",
      "outputs": [
        {
          "internalType": "string[]",
          "name": "",
          "type": "string[]"
        }
      ],
      "stateMutability": "view",
      "type": "function",
      "constant": true
    },
    {
      "inputs": [],
      "name": "showUser",
      "outputs": [
        {
          "components": [
            {
              "internalType": "string",
              "name": "name",
              "type": "string"
            },
            {
              "internalType": "uint256",
              "name": "number",
              "type": "uint256"
            },
            {
              "internalType": "address",
              "name": "account_address",
              "type": "address"
            }
          ],
          "internalType": "struct Note.User[]",
          "name": "",
          "type": "tuple[]"
        }
      ],
      "stateMutability": "view",
      "type": "function",
      "constant": true
    }
  ],
  "bytecode": "0x608060405234801561001057600080fd5b50610de9806100206000396000f3fe608060405234801561001057600080fd5b506004361061009e5760003560e01c8063bd93644a11610066578063bd93644a14610136578063bdb09c1214610156578063dca4cdbf1461016b578063df3ac4761461018d578063ea87152b1461019557600080fd5b8063118f295c146100a357806338cc4831146100c15780635baca0d6146100d65780636f77926b146100eb578063b76ebf601461010b575b600080fd5b6100ab6101a8565b6040516100b89190610c2d565b60405180910390f35b6100c961032d565b6040516100b89190610be0565b6100e96100e4366004610ac2565b61038f565b005b6100fe6100f9366004610a94565b6103b3565b6040516100b89190610d28565b61011e610119366004610b40565b6104b8565b6040516001600160a01b0390911681526020016100b8565b610149610144366004610a94565b6104e2565b6040516100b89190610ce2565b61015e61057c565b6040516100b89190610c8e565b61017e610179366004610a94565b610759565b6040516100b893929190610cf5565b61014961080d565b6100e96101a3366004610afd565b6108a5565b600080546060918167ffffffffffffffff8111156101d657634e487b7160e01b600052604160045260246000fd5b60405190808252806020026020018201604052801561020957816020015b60608152602001906001900390816101f45790505b50905060005b82811015610326576002600080838154811061023b57634e487b7160e01b600052603260045260246000fd5b60009182526020808320909101546001600160a01b031683528201929092526040019020805461026a90610d3b565b80601f016020809104026020016040519081016040528092919081815260200182805461029690610d3b565b80156102e35780601f106102b8576101008083540402835291602001916102e3565b820191906000526020600020905b8154815290600101906020018083116102c657829003601f168201915b505050505082828151811061030857634e487b7160e01b600052603260045260246000fd5b6020026020010181905250808061031e90610d76565b91505061020f565b5092915050565b6060600080548060200260200160405190810160405280929190818152602001828054801561038557602002820191906000526020600020905b81546001600160a01b03168152600190910190602001808311610367575b5050505050905090565b33600090815260026020908152604090912082516103af92840190610974565b5050565b6103e06040518060600160405280606081526020016000815260200160006001600160a01b031681525090565b6001600160a01b0382166000908152600160205260409081902081516060810190925280548290829061041290610d3b565b80601f016020809104026020016040519081016040528092919081815260200182805461043e90610d3b565b801561048b5780601f106104605761010080835404028352916020019161048b565b820191906000526020600020905b81548152906001019060200180831161046e57829003601f168201915b5050509183525050600182015460208201526002909101546001600160a01b031660409091015292915050565b600081815481106104c857600080fd5b6000918252602090912001546001600160a01b0316905081565b600260205260009081526040902080546104fb90610d3b565b80601f016020809104026020016040519081016040528092919081815260200182805461052790610d3b565b80156105745780601f1061054957610100808354040283529160200191610574565b820191906000526020600020905b81548152906001019060200180831161055757829003601f168201915b505050505081565b600080546060918167ffffffffffffffff8111156105aa57634e487b7160e01b600052604160045260246000fd5b60405190808252806020026020018201604052801561060857816020015b6105f56040518060600160405280606081526020016000815260200160006001600160a01b031681525090565b8152602001906001900390816105c85790505b50905060005b82811015610326576001600080838154811061063a57634e487b7160e01b600052603260045260246000fd5b60009182526020808320909101546001600160a01b03168352820192909252604090810190912081516060810190925280548290829061067990610d3b565b80601f01602080910402602001604051908101604052809291908181526020018280546106a590610d3b565b80156106f25780601f106106c7576101008083540402835291602001916106f2565b820191906000526020600020905b8154815290600101906020018083116106d557829003601f168201915b5050509183525050600182015460208201526002909101546001600160a01b0316604090910152825183908390811061073b57634e487b7160e01b600052603260045260246000fd5b6020026020010181905250808061075190610d76565b91505061060e565b60016020526000908152604090208054819061077490610d3b565b80601f01602080910402602001604051908101604052809291908181526020018280546107a090610d3b565b80156107ed5780601f106107c2576101008083540402835291602001916107ed565b820191906000526020600020905b8154815290600101906020018083116107d057829003601f168201915b5050505060018301546002909301549192916001600160a01b0316905083565b33600090815260026020526040902080546060919061082b90610d3b565b80601f016020809104026020016040519081016040528092919081815260200182805461085790610d3b565b80156103855780601f1061087957610100808354040283529160200191610385565b820191906000526020600020905b81548152906001019060200180831161088757509395945050505050565b3360009081526001602081905260409091200154156108c357600080fd5b604080516060810182528381526020808201849052338284018190526000908152600182529290922081518051929384936109019284920190610974565b506020820151600180830191909155604090920151600290910180546001600160a01b039092166001600160a01b031992831617905560008054928301815580527f290decd9548b62a8d60345a988386fc84ba6bc95484008f6362f93160ef3e563909101805490911633179055505050565b82805461098090610d3b565b90600052602060002090601f0160209004810192826109a257600085556109e8565b82601f106109bb57805160ff19168380011785556109e8565b828001600101855582156109e8579182015b828111156109e85782518255916020019190600101906109cd565b506109f49291506109f8565b5090565b5b808211156109f457600081556001016109f9565b600082601f830112610a1d578081fd5b813567ffffffffffffffff80821115610a3857610a38610d9d565b604051601f8301601f19908116603f01168101908282118183101715610a6057610a60610d9d565b81604052838152866020858801011115610a78578485fd5b8360208701602083013792830160200193909352509392505050565b600060208284031215610aa5578081fd5b81356001600160a01b0381168114610abb578182fd5b9392505050565b600060208284031215610ad3578081fd5b813567ffffffffffffffff811115610ae9578182fd5b610af584828501610a0d565b949350505050565b60008060408385031215610b0f578081fd5b823567ffffffffffffffff811115610b25578182fd5b610b3185828601610a0d565b95602094909401359450505050565b600060208284031215610b51578081fd5b5035919050565b60008151808452815b81811015610b7d57602081850181015186830182015201610b61565b81811115610b8e5782602083870101525b50601f01601f19169290920160200192915050565b6000815160608452610bb86060850182610b58565b602084810151908601526040938401516001600160a01b031693909401929092525090919050565b6020808252825182820181905260009190848201906040850190845b81811015610c215783516001600160a01b031683529284019291840191600101610bfc565b50909695505050505050565b6000602080830181845280855180835260408601915060408160051b8701019250838701855b82811015610c8157603f19888603018452610c6f858351610b58565b94509285019290850190600101610c53565b5092979650505050505050565b6000602080830181845280855180835260408601915060408160051b8701019250838701855b82811015610c8157603f19888603018452610cd0858351610ba3565b94509285019290850190600101610cb4565b602081526000610abb6020830184610b58565b606081526000610d086060830186610b58565b6020830194909452506001600160a01b0391909116604090910152919050565b602081526000610abb6020830184610ba3565b600181811c90821680610d4f57607f821691505b60208210811415610d7057634e487b7160e01b600052602260045260246000fd5b50919050565b6000600019821415610d9657634e487b7160e01b81526011600452602481fd5b5060010190565b634e487b7160e01b600052604160045260246000fdfea26469706673582212205861c0645630f3e071dc96936f34f87b515047afb76f4875516cb8ecbba95b9764736f6c63430008040033",
  "immutableReferences": {},
  "source": "// SPDX-License-Identifier: MIT\r\npragma solidity >=0.7.0 <0.9.0;\r\n\r\ncontract Note {\r\n    struct User {\r\n        string name;\r\n        uint256 number;\r\n        address account_address;\r\n    }\r\n\r\n    address[] public all_address;\r\n\r\n    mapping(address => User) public all_users;\r\n    mapping(address => string) public notes;\r\n\r\n    function register(string memory name, uint256 number) public {\r\n        if (all_users[msg.sender].number > 0) {\r\n            revert();\r\n        } else {\r\n            User memory user = User({\r\n                name: name,\r\n                number: number,\r\n                account_address: msg.sender\r\n            });\r\n            all_users[msg.sender] = user;\r\n            all_address.push(msg.sender);\r\n        }\r\n    }\r\n\r\n    function saveNote(string memory note) public {\r\n        notes[msg.sender] = note;\r\n    }\r\n\r\n    function getNote() public view returns (string memory) {\r\n        return notes[msg.sender];\r\n    }\r\n\r\n    // User[] values;\r\n\r\n    // function getAllValues() public returns (User[] memory) {\r\n    //     User[] memory values;\r\n    //     for (uint256 i = 0; i < all_address.length; i++) {\r\n    //         values.push(all_users[all_address[i]]);\r\n    //     }\r\n    //     return values;\r\n    // }\r\n\r\n    function getAddress() public view returns (address[] memory) {\r\n        return all_address;\r\n    }\r\n\r\n    function getUser(address id) public view returns (User memory) {\r\n        return all_users[id];\r\n    }\r\n\r\n    function showNotes() public view returns (string[] memory) {\r\n        uint256 size = all_address.length; // determine the size of the mapping\r\n        // Notee[] memory noteArray = new Notee[](size);\r\n        string[] memory noteArray = new string[](size);\r\n\r\n        for (uint256 i = 0; i < size; i++) {\r\n            noteArray[i] = notes[all_address[i]];\r\n        }\r\n        return noteArray;\r\n    }\r\n\r\n    function showUser() public view returns (User[] memory) {\r\n        uint256 size = all_address.length; // determine the size of the mapping\r\n        User[] memory userArray = new User[](size);\r\n\r\n        for (uint256 i = 0; i < size; i++) {\r\n            userArray[i] = all_users[all_address[i]];\r\n        }\r\n        return userArray;\r\n    }\r\n}\r\n",
  "sourcePath": "H:\\WEB_3\\code\\microfinance--main\\truffle\\contracts\\note.sol",
  "compiler": {
    "name": "solc",
    "version": "0.8.4+commit.c7e474f2.Emscripten.clang"
  },
  "schemaVersion": "3.4.10",
  "updatedAt": "2023-05-13T08:34:14.894Z",
  "networkType": "ethereum",
  "devdoc": {
    "kind": "dev",
    "methods": {},
    "version": 1
  },
  "userdoc": {
    "kind": "user",
    "methods": {},
    "version": 1
  }
}